{
  "address": "0xBC9484A44aa3D4214B980E08EEc008144b6771dc",
  "abi": [
    {
      "inputs": [],
      "stateMutability": "nonpayable",
      "type": "constructor"
    },
    {
      "anonymous": false,
      "inputs": [
        {
          "indexed": true,
          "internalType": "address",
          "name": "account",
          "type": "address"
        },
        {
          "indexed": true,
          "internalType": "address",
          "name": "operator",
          "type": "address"
        },
        {
          "indexed": false,
          "internalType": "bool",
          "name": "approved",
          "type": "bool"
        }
      ],
      "name": "ApprovalForAll",
      "type": "event"
    },
    {
      "anonymous": false,
      "inputs": [
        {
          "indexed": false,
          "internalType": "address",
          "name": "from",
          "type": "address"
        },
        {
          "indexed": false,
          "internalType": "address",
          "name": "to",
          "type": "address"
        },
        {
          "indexed": false,
          "internalType": "uint256",
          "name": "token",
          "type": "uint256"
        },
        {
          "indexed": false,
          "internalType": "uint256",
          "name": "amount",
          "type": "uint256"
        }
      ],
      "name": "Transfer",
      "type": "event"
    },
    {
      "anonymous": false,
      "inputs": [
        {
          "indexed": true,
          "internalType": "address",
          "name": "operator",
          "type": "address"
        },
        {
          "indexed": true,
          "internalType": "address",
          "name": "from",
          "type": "address"
        },
        {
          "indexed": true,
          "internalType": "address",
          "name": "to",
          "type": "address"
        },
        {
          "indexed": false,
          "internalType": "uint256[]",
          "name": "ids",
          "type": "uint256[]"
        },
        {
          "indexed": false,
          "internalType": "uint256[]",
          "name": "values",
          "type": "uint256[]"
        }
      ],
      "name": "TransferBatch",
      "type": "event"
    },
    {
      "anonymous": false,
      "inputs": [
        {
          "indexed": true,
          "internalType": "address",
          "name": "operator",
          "type": "address"
        },
        {
          "indexed": true,
          "internalType": "address",
          "name": "from",
          "type": "address"
        },
        {
          "indexed": true,
          "internalType": "address",
          "name": "to",
          "type": "address"
        },
        {
          "indexed": false,
          "internalType": "uint256",
          "name": "id",
          "type": "uint256"
        },
        {
          "indexed": false,
          "internalType": "uint256",
          "name": "value",
          "type": "uint256"
        }
      ],
      "name": "TransferSingle",
      "type": "event"
    },
    {
      "anonymous": false,
      "inputs": [
        {
          "indexed": false,
          "internalType": "string",
          "name": "value",
          "type": "string"
        },
        {
          "indexed": true,
          "internalType": "uint256",
          "name": "id",
          "type": "uint256"
        }
      ],
      "name": "URI",
      "type": "event"
    },
    {
      "inputs": [
        {
          "internalType": "address",
          "name": "account",
          "type": "address"
        },
        {
          "internalType": "uint256",
          "name": "id",
          "type": "uint256"
        }
      ],
      "name": "balanceOf",
      "outputs": [
        {
          "internalType": "uint256",
          "name": "",
          "type": "uint256"
        }
      ],
      "stateMutability": "view",
      "type": "function"
    },
    {
      "inputs": [
        {
          "internalType": "address[]",
          "name": "accounts",
          "type": "address[]"
        },
        {
          "internalType": "uint256[]",
          "name": "ids",
          "type": "uint256[]"
        }
      ],
      "name": "balanceOfBatch",
      "outputs": [
        {
          "internalType": "uint256[]",
          "name": "",
          "type": "uint256[]"
        }
      ],
      "stateMutability": "view",
      "type": "function"
    },
    {
      "inputs": [
        {
          "internalType": "address",
          "name": "from",
          "type": "address"
        },
        {
          "internalType": "uint256",
          "name": "id",
          "type": "uint256"
        },
        {
          "internalType": "uint256",
          "name": "amount",
          "type": "uint256"
        }
      ],
      "name": "burn",
      "outputs": [],
      "stateMutability": "nonpayable",
      "type": "function"
    },
    {
      "inputs": [
        {
          "internalType": "address",
          "name": "account",
          "type": "address"
        },
        {
          "internalType": "address",
          "name": "operator",
          "type": "address"
        }
      ],
      "name": "isApprovedForAll",
      "outputs": [
        {
          "internalType": "bool",
          "name": "",
          "type": "bool"
        }
      ],
      "stateMutability": "view",
      "type": "function"
    },
    {
      "inputs": [
        {
          "internalType": "address",
          "name": "to",
          "type": "address"
        },
        {
          "internalType": "uint256",
          "name": "id",
          "type": "uint256"
        },
        {
          "internalType": "uint256",
          "name": "amount",
          "type": "uint256"
        }
      ],
      "name": "mint",
      "outputs": [],
      "stateMutability": "nonpayable",
      "type": "function"
    },
    {
      "inputs": [
        {
          "internalType": "address",
          "name": "from",
          "type": "address"
        },
        {
          "internalType": "address",
          "name": "to",
          "type": "address"
        },
        {
          "internalType": "uint256[]",
          "name": "ids",
          "type": "uint256[]"
        },
        {
          "internalType": "uint256[]",
          "name": "amounts",
          "type": "uint256[]"
        },
        {
          "internalType": "bytes",
          "name": "data",
          "type": "bytes"
        }
      ],
      "name": "safeBatchTransferFrom",
      "outputs": [],
      "stateMutability": "nonpayable",
      "type": "function"
    },
    {
      "inputs": [
        {
          "internalType": "address",
          "name": "from",
          "type": "address"
        },
        {
          "internalType": "address",
          "name": "to",
          "type": "address"
        },
        {
          "internalType": "uint256",
          "name": "id",
          "type": "uint256"
        },
        {
          "internalType": "uint256",
          "name": "amount",
          "type": "uint256"
        },
        {
          "internalType": "bytes",
          "name": "data",
          "type": "bytes"
        }
      ],
      "name": "safeTransferFrom",
      "outputs": [],
      "stateMutability": "nonpayable",
      "type": "function"
    },
    {
      "inputs": [
        {
          "internalType": "address",
          "name": "operator",
          "type": "address"
        },
        {
          "internalType": "bool",
          "name": "approved",
          "type": "bool"
        }
      ],
      "name": "setApprovalForAll",
      "outputs": [],
      "stateMutability": "nonpayable",
      "type": "function"
    },
    {
      "inputs": [
        {
          "internalType": "bytes4",
          "name": "interfaceId",
          "type": "bytes4"
        }
      ],
      "name": "supportsInterface",
      "outputs": [
        {
          "internalType": "bool",
          "name": "",
          "type": "bool"
        }
      ],
      "stateMutability": "view",
      "type": "function"
    },
    {
      "inputs": [
        {
          "internalType": "uint256",
          "name": "",
          "type": "uint256"
        }
      ],
      "name": "uri",
      "outputs": [
        {
          "internalType": "string",
          "name": "",
          "type": "string"
        }
      ],
      "stateMutability": "view",
      "type": "function"
    }
  ],
  "transactionHash": "0xb71d3b5b86d9ce74a21fd0546458c74a78a642eebf189aac1b64ee44bb93b7aa",
  "args": [],
  "numDeployments": 1,
  "solcInputHash": "2534c2d5c9d826f30dd4d32b20e9f7c8",
  "bytecode": "0x60806040523480156200001157600080fd5b5060405180608001604052806050815260200162002f33605091396200003d816200008560201b60201c565b5033600360006101000a81548173ffffffffffffffffffffffffffffffffffffffff021916908373ffffffffffffffffffffffffffffffffffffffff160217905550620001b6565b80600290805190602001906200009d929190620000a1565b5050565b828054620000af9062000180565b90600052602060002090601f016020900481019282620000d357600085556200011f565b82601f10620000ee57805160ff19168380011785556200011f565b828001600101855582156200011f579182015b828111156200011e57825182559160200191906001019062000101565b5b5090506200012e919062000132565b5090565b5b808211156200014d57600081600090555060010162000133565b5090565b7f4e487b7100000000000000000000000000000000000000000000000000000000600052602260045260246000fd5b600060028204905060018216806200019957607f821691505b60208210811415620001b057620001af62000151565b5b50919050565b612d6d80620001c66000396000f3fe608060405234801561001057600080fd5b506004361061009d5760003560e01c80634e1273f4116100665780634e1273f41461016a578063a22cb4651461019a578063e985e9c5146101b6578063f242432a146101e6578063f5298aca146102025761009d565b8062fdd58e146100a257806301ffc9a7146100d25780630e89341c14610102578063156e29f6146101325780632eb2c2d61461014e575b600080fd5b6100bc60048036038101906100b79190611939565b61021e565b6040516100c99190611988565b60405180910390f35b6100ec60048036038101906100e791906119fb565b6102e7565b6040516100f99190611a43565b60405180910390f35b61011c60048036038101906101179190611a5e565b6103c9565b6040516101299190611b24565b60405180910390f35b61014c60048036038101906101479190611b46565b61045d565b005b61016860048036038101906101639190611d96565b6104dc565b005b610184600480360381019061017f9190611f28565b61057d565b604051610191919061205e565b60405180910390f35b6101b460048036038101906101af91906120ac565b610696565b005b6101d060048036038101906101cb91906120ec565b6106ac565b6040516101dd9190611a43565b60405180910390f35b61020060048036038101906101fb919061212c565b610740565b005b61021c60048036038101906102179190611b46565b6107e1565b005b60008073ffffffffffffffffffffffffffffffffffffffff168373ffffffffffffffffffffffffffffffffffffffff16141561028f576040517f08c379a000000000000000000000000000000000000000000000000000000000815260040161028690612235565b60405180910390fd5b60008083815260200190815260200160002060008473ffffffffffffffffffffffffffffffffffffffff1673ffffffffffffffffffffffffffffffffffffffff16815260200190815260200160002054905092915050565b60007fd9b67a26000000000000000000000000000000000000000000000000000000007bffffffffffffffffffffffffffffffffffffffffffffffffffffffff1916827bffffffffffffffffffffffffffffffffffffffffffffffffffffffff191614806103b257507f0e89341c000000000000000000000000000000000000000000000000000000007bffffffffffffffffffffffffffffffffffffffffffffffffffffffff1916827bffffffffffffffffffffffffffffffffffffffffffffffffffffffff1916145b806103c257506103c1826107f1565b5b9050919050565b6060600280546103d890612284565b80601f016020809104026020016040519081016040528092919081815260200182805461040490612284565b80156104515780601f1061042657610100808354040283529160200191610451565b820191906000526020600020905b81548152906001019060200180831161043457829003601f168201915b50505050509050919050565b6104788383836040518060200160405280600081525061085b565b7f9ed053bb818ff08b8353cd46f78db1f0799f31c9e4458fdb425c10eccd2efc44600360009054906101000a900473ffffffffffffffffffffffffffffffffffffffff168484846040516104cf94939291906122c5565b60405180910390a1505050565b6104e4610a0c565b73ffffffffffffffffffffffffffffffffffffffff168573ffffffffffffffffffffffffffffffffffffffff16148061052a575061052985610524610a0c565b6106ac565b5b610569576040517f08c379a00000000000000000000000000000000000000000000000000000000081526004016105609061237c565b60405180910390fd5b6105768585858585610a14565b5050505050565b606081518351146105c3576040517f08c379a00000000000000000000000000000000000000000000000000000000081526004016105ba9061240e565b60405180910390fd5b6000835167ffffffffffffffff8111156105e0576105df611b9e565b5b60405190808252806020026020018201604052801561060e5781602001602082028036833780820191505090505b50905060005b845181101561068b5761065b8582815181106106335761063261242e565b5b602002602001015185838151811061064e5761064d61242e565b5b602002602001015161021e565b82828151811061066e5761066d61242e565b5b602002602001018181525050806106849061248c565b9050610614565b508091505092915050565b6106a86106a1610a0c565b8383610d36565b5050565b6000600160008473ffffffffffffffffffffffffffffffffffffffff1673ffffffffffffffffffffffffffffffffffffffff16815260200190815260200160002060008373ffffffffffffffffffffffffffffffffffffffff1673ffffffffffffffffffffffffffffffffffffffff16815260200190815260200160002060009054906101000a900460ff16905092915050565b610748610a0c565b73ffffffffffffffffffffffffffffffffffffffff168573ffffffffffffffffffffffffffffffffffffffff16148061078e575061078d85610788610a0c565b6106ac565b5b6107cd576040517f08c379a00000000000000000000000000000000000000000000000000000000081526004016107c49061237c565b60405180910390fd5b6107da8585858585610ea3565b5050505050565b6107ec83838361113f565b505050565b60007f01ffc9a7000000000000000000000000000000000000000000000000000000007bffffffffffffffffffffffffffffffffffffffffffffffffffffffff1916827bffffffffffffffffffffffffffffffffffffffffffffffffffffffff1916149050919050565b600073ffffffffffffffffffffffffffffffffffffffff168473ffffffffffffffffffffffffffffffffffffffff1614156108cb576040517f08c379a00000000000000000000000000000000000000000000000000000000081526004016108c290612547565b60405180910390fd5b60006108d5610a0c565b905060006108e285611386565b905060006108ef85611386565b905061090083600089858589611400565b8460008088815260200190815260200160002060008973ffffffffffffffffffffffffffffffffffffffff1673ffffffffffffffffffffffffffffffffffffffff168152602001908152602001600020600082825461095f9190612567565b925050819055508673ffffffffffffffffffffffffffffffffffffffff16600073ffffffffffffffffffffffffffffffffffffffff168473ffffffffffffffffffffffffffffffffffffffff167fc3d58168c5ae7397731d063d5bbf3d657854427343f4c083240f7aacaa2d0f6289896040516109dd9291906125bd565b60405180910390a46109f483600089858589611498565b610a03836000898989896114a0565b50505050505050565b600033905090565b8151835114610a58576040517f08c379a0000000000000000000000000000000000000000000000000000000008152600401610a4f90612658565b60405180910390fd5b600073ffffffffffffffffffffffffffffffffffffffff168473ffffffffffffffffffffffffffffffffffffffff161415610ac8576040517f08c379a0000000000000000000000000000000000000000000000000000000008152600401610abf906126ea565b60405180910390fd5b6000610ad2610a0c565b9050610ae2818787878787611400565b60005b8451811015610c93576000858281518110610b0357610b0261242e565b5b602002602001015190506000858381518110610b2257610b2161242e565b5b60200260200101519050600080600084815260200190815260200160002060008b73ffffffffffffffffffffffffffffffffffffffff1673ffffffffffffffffffffffffffffffffffffffff16815260200190815260200160002054905081811015610bc3576040517f08c379a0000000000000000000000000000000000000000000000000000000008152600401610bba9061277c565b60405180910390fd5b81810360008085815260200190815260200160002060008c73ffffffffffffffffffffffffffffffffffffffff1673ffffffffffffffffffffffffffffffffffffffff168152602001908152602001600020819055508160008085815260200190815260200160002060008b73ffffffffffffffffffffffffffffffffffffffff1673ffffffffffffffffffffffffffffffffffffffff1681526020019081526020016000206000828254610c789190612567565b9250508190555050505080610c8c9061248c565b9050610ae5565b508473ffffffffffffffffffffffffffffffffffffffff168673ffffffffffffffffffffffffffffffffffffffff168273ffffffffffffffffffffffffffffffffffffffff167f4a39dc06d4c0dbc64b70af90fd698a233a518aa5d07e595d983b8c0526c8f7fb8787604051610d0a92919061279c565b60405180910390a4610d20818787878787611498565b610d2e818787878787611687565b505050505050565b8173ffffffffffffffffffffffffffffffffffffffff168373ffffffffffffffffffffffffffffffffffffffff161415610da5576040517f08c379a0000000000000000000000000000000000000000000000000000000008152600401610d9c90612845565b60405180910390fd5b80600160008573ffffffffffffffffffffffffffffffffffffffff1673ffffffffffffffffffffffffffffffffffffffff16815260200190815260200160002060008473ffffffffffffffffffffffffffffffffffffffff1673ffffffffffffffffffffffffffffffffffffffff16815260200190815260200160002060006101000a81548160ff0219169083151502179055508173ffffffffffffffffffffffffffffffffffffffff168373ffffffffffffffffffffffffffffffffffffffff167f17307eab39ab6107e8899845ad3d59bd9653f200f220920489ca2b5937696c3183604051610e969190611a43565b60405180910390a3505050565b600073ffffffffffffffffffffffffffffffffffffffff168473ffffffffffffffffffffffffffffffffffffffff161415610f13576040517f08c379a0000000000000000000000000000000000000000000000000000000008152600401610f0a906126ea565b60405180910390fd5b6000610f1d610a0c565b90506000610f2a85611386565b90506000610f3785611386565b9050610f47838989858589611400565b600080600088815260200190815260200160002060008a73ffffffffffffffffffffffffffffffffffffffff1673ffffffffffffffffffffffffffffffffffffffff16815260200190815260200160002054905085811015610fde576040517f08c379a0000000000000000000000000000000000000000000000000000000008152600401610fd59061277c565b60405180910390fd5b85810360008089815260200190815260200160002060008b73ffffffffffffffffffffffffffffffffffffffff1673ffffffffffffffffffffffffffffffffffffffff168152602001908152602001600020819055508560008089815260200190815260200160002060008a73ffffffffffffffffffffffffffffffffffffffff1673ffffffffffffffffffffffffffffffffffffffff16815260200190815260200160002060008282546110939190612567565b925050819055508773ffffffffffffffffffffffffffffffffffffffff168973ffffffffffffffffffffffffffffffffffffffff168573ffffffffffffffffffffffffffffffffffffffff167fc3d58168c5ae7397731d063d5bbf3d657854427343f4c083240f7aacaa2d0f628a8a6040516111109291906125bd565b60405180910390a4611126848a8a86868a611498565b611134848a8a8a8a8a6114a0565b505050505050505050565b600073ffffffffffffffffffffffffffffffffffffffff168373ffffffffffffffffffffffffffffffffffffffff1614156111af576040517f08c379a00000000000000000000000000000000000000000000000000000000081526004016111a6906128d7565b60405180910390fd5b60006111b9610a0c565b905060006111c684611386565b905060006111d384611386565b90506111f383876000858560405180602001604052806000815250611400565b600080600087815260200190815260200160002060008873ffffffffffffffffffffffffffffffffffffffff1673ffffffffffffffffffffffffffffffffffffffff1681526020019081526020016000205490508481101561128a576040517f08c379a000000000000000000000000000000000000000000000000000000000815260040161128190612969565b60405180910390fd5b84810360008088815260200190815260200160002060008973ffffffffffffffffffffffffffffffffffffffff1673ffffffffffffffffffffffffffffffffffffffff16815260200190815260200160002081905550600073ffffffffffffffffffffffffffffffffffffffff168773ffffffffffffffffffffffffffffffffffffffff168573ffffffffffffffffffffffffffffffffffffffff167fc3d58168c5ae7397731d063d5bbf3d657854427343f4c083240f7aacaa2d0f6289896040516113579291906125bd565b60405180910390a461137d84886000868660405180602001604052806000815250611498565b50505050505050565b60606000600167ffffffffffffffff8111156113a5576113a4611b9e565b5b6040519080825280602002602001820160405280156113d35781602001602082028036833780820191505090505b50905082816000815181106113eb576113ea61242e565b5b60200260200101818152505080915050919050565b600360009054906101000a900473ffffffffffffffffffffffffffffffffffffffff1673ffffffffffffffffffffffffffffffffffffffff163373ffffffffffffffffffffffffffffffffffffffff1614611490576040517f08c379a0000000000000000000000000000000000000000000000000000000008152600401611487906129d5565b60405180910390fd5b505050505050565b505050505050565b6114bf8473ffffffffffffffffffffffffffffffffffffffff1661186e565b1561167f578373ffffffffffffffffffffffffffffffffffffffff1663f23a6e6187878686866040518663ffffffff1660e01b8152600401611505959493929190612a4a565b602060405180830381600087803b15801561151f57600080fd5b505af192505050801561155057506040513d601f19601f8201168201806040525081019061154d9190612ab9565b60015b6115f65761155c612af3565b806308c379a014156115b95750611571612b15565b8061157c57506115bb565b806040517f08c379a00000000000000000000000000000000000000000000000000000000081526004016115b09190611b24565b60405180910390fd5b505b6040517f08c379a00000000000000000000000000000000000000000000000000000000081526004016115ed90612c1d565b60405180910390fd5b63f23a6e6160e01b7bffffffffffffffffffffffffffffffffffffffffffffffffffffffff1916817bffffffffffffffffffffffffffffffffffffffffffffffffffffffff19161461167d576040517f08c379a000000000000000000000000000000000000000000000000000000000815260040161167490612caf565b60405180910390fd5b505b505050505050565b6116a68473ffffffffffffffffffffffffffffffffffffffff1661186e565b15611866578373ffffffffffffffffffffffffffffffffffffffff1663bc197c8187878686866040518663ffffffff1660e01b81526004016116ec959493929190612ccf565b602060405180830381600087803b15801561170657600080fd5b505af192505050801561173757506040513d601f19601f820116820180604052508101906117349190612ab9565b60015b6117dd57611743612af3565b806308c379a014156117a05750611758612b15565b8061176357506117a2565b806040517f08c379a00000000000000000000000000000000000000000000000000000000081526004016117979190611b24565b60405180910390fd5b505b6040517f08c379a00000000000000000000000000000000000000000000000000000000081526004016117d490612c1d565b60405180910390fd5b63bc197c8160e01b7bffffffffffffffffffffffffffffffffffffffffffffffffffffffff1916817bffffffffffffffffffffffffffffffffffffffffffffffffffffffff191614611864576040517f08c379a000000000000000000000000000000000000000000000000000000000815260040161185b90612caf565b60405180910390fd5b505b505050505050565b6000808273ffffffffffffffffffffffffffffffffffffffff163b119050919050565b6000604051905090565b600080fd5b600080fd5b600073ffffffffffffffffffffffffffffffffffffffff82169050919050565b60006118d0826118a5565b9050919050565b6118e0816118c5565b81146118eb57600080fd5b50565b6000813590506118fd816118d7565b92915050565b6000819050919050565b61191681611903565b811461192157600080fd5b50565b6000813590506119338161190d565b92915050565b600080604083850312156119505761194f61189b565b5b600061195e858286016118ee565b925050602061196f85828601611924565b9150509250929050565b61198281611903565b82525050565b600060208201905061199d6000830184611979565b92915050565b60007fffffffff0000000000000000000000000000000000000000000000000000000082169050919050565b6119d8816119a3565b81146119e357600080fd5b50565b6000813590506119f5816119cf565b92915050565b600060208284031215611a1157611a1061189b565b5b6000611a1f848285016119e6565b91505092915050565b60008115159050919050565b611a3d81611a28565b82525050565b6000602082019050611a586000830184611a34565b92915050565b600060208284031215611a7457611a7361189b565b5b6000611a8284828501611924565b91505092915050565b600081519050919050565b600082825260208201905092915050565b60005b83811015611ac5578082015181840152602081019050611aaa565b83811115611ad4576000848401525b50505050565b6000601f19601f8301169050919050565b6000611af682611a8b565b611b008185611a96565b9350611b10818560208601611aa7565b611b1981611ada565b840191505092915050565b60006020820190508181036000830152611b3e8184611aeb565b905092915050565b600080600060608486031215611b5f57611b5e61189b565b5b6000611b6d868287016118ee565b9350506020611b7e86828701611924565b9250506040611b8f86828701611924565b9150509250925092565b600080fd5b7f4e487b7100000000000000000000000000000000000000000000000000000000600052604160045260246000fd5b611bd682611ada565b810181811067ffffffffffffffff82111715611bf557611bf4611b9e565b5b80604052505050565b6000611c08611891565b9050611c148282611bcd565b919050565b600067ffffffffffffffff821115611c3457611c33611b9e565b5b602082029050602081019050919050565b600080fd5b6000611c5d611c5884611c19565b611bfe565b90508083825260208201905060208402830185811115611c8057611c7f611c45565b5b835b81811015611ca95780611c958882611924565b845260208401935050602081019050611c82565b5050509392505050565b600082601f830112611cc857611cc7611b99565b5b8135611cd8848260208601611c4a565b91505092915050565b600080fd5b600067ffffffffffffffff821115611d0157611d00611b9e565b5b611d0a82611ada565b9050602081019050919050565b82818337600083830152505050565b6000611d39611d3484611ce6565b611bfe565b905082815260208101848484011115611d5557611d54611ce1565b5b611d60848285611d17565b509392505050565b600082601f830112611d7d57611d7c611b99565b5b8135611d8d848260208601611d26565b91505092915050565b600080600080600060a08688031215611db257611db161189b565b5b6000611dc0888289016118ee565b9550506020611dd1888289016118ee565b945050604086013567ffffffffffffffff811115611df257611df16118a0565b5b611dfe88828901611cb3565b935050606086013567ffffffffffffffff811115611e1f57611e1e6118a0565b5b611e2b88828901611cb3565b925050608086013567ffffffffffffffff811115611e4c57611e4b6118a0565b5b611e5888828901611d68565b9150509295509295909350565b600067ffffffffffffffff821115611e8057611e7f611b9e565b5b602082029050602081019050919050565b6000611ea4611e9f84611e65565b611bfe565b90508083825260208201905060208402830185811115611ec757611ec6611c45565b5b835b81811015611ef05780611edc88826118ee565b845260208401935050602081019050611ec9565b5050509392505050565b600082601f830112611f0f57611f0e611b99565b5b8135611f1f848260208601611e91565b91505092915050565b60008060408385031215611f3f57611f3e61189b565b5b600083013567ffffffffffffffff811115611f5d57611f5c6118a0565b5b611f6985828601611efa565b925050602083013567ffffffffffffffff811115611f8a57611f896118a0565b5b611f9685828601611cb3565b9150509250929050565b600081519050919050565b600082825260208201905092915050565b6000819050602082019050919050565b611fd581611903565b82525050565b6000611fe78383611fcc565b60208301905092915050565b6000602082019050919050565b600061200b82611fa0565b6120158185611fab565b935061202083611fbc565b8060005b838110156120515781516120388882611fdb565b975061204383611ff3565b925050600181019050612024565b5085935050505092915050565b600060208201905081810360008301526120788184612000565b905092915050565b61208981611a28565b811461209457600080fd5b50565b6000813590506120a681612080565b92915050565b600080604083850312156120c3576120c261189b565b5b60006120d1858286016118ee565b92505060206120e285828601612097565b9150509250929050565b600080604083850312156121035761210261189b565b5b6000612111858286016118ee565b9250506020612122858286016118ee565b9150509250929050565b600080600080600060a086880312156121485761214761189b565b5b6000612156888289016118ee565b9550506020612167888289016118ee565b945050604061217888828901611924565b935050606061218988828901611924565b925050608086013567ffffffffffffffff8111156121aa576121a96118a0565b5b6121b688828901611d68565b9150509295509295909350565b7f455243313135353a2061646472657373207a65726f206973206e6f742061207660008201527f616c6964206f776e657200000000000000000000000000000000000000000000602082015250565b600061221f602a83611a96565b915061222a826121c3565b604082019050919050565b6000602082019050818103600083015261224e81612212565b9050919050565b7f4e487b7100000000000000000000000000000000000000000000000000000000600052602260045260246000fd5b6000600282049050600182168061229c57607f821691505b602082108114156122b0576122af612255565b5b50919050565b6122bf816118c5565b82525050565b60006080820190506122da60008301876122b6565b6122e760208301866122b6565b6122f46040830185611979565b6123016060830184611979565b95945050505050565b7f455243313135353a2063616c6c6572206973206e6f7420746f6b656e206f776e60008201527f6572206e6f7220617070726f7665640000000000000000000000000000000000602082015250565b6000612366602f83611a96565b91506123718261230a565b604082019050919050565b6000602082019050818103600083015261239581612359565b9050919050565b7f455243313135353a206163636f756e747320616e6420696473206c656e67746860008201527f206d69736d617463680000000000000000000000000000000000000000000000602082015250565b60006123f8602983611a96565b91506124038261239c565b604082019050919050565b60006020820190508181036000830152612427816123eb565b9050919050565b7f4e487b7100000000000000000000000000000000000000000000000000000000600052603260045260246000fd5b7f4e487b7100000000000000000000000000000000000000000000000000000000600052601160045260246000fd5b600061249782611903565b91507fffffffffffffffffffffffffffffffffffffffffffffffffffffffffffffffff8214156124ca576124c961245d565b5b600182019050919050565b7f455243313135353a206d696e7420746f20746865207a65726f2061646472657360008201527f7300000000000000000000000000000000000000000000000000000000000000602082015250565b6000612531602183611a96565b915061253c826124d5565b604082019050919050565b6000602082019050818103600083015261256081612524565b9050919050565b600061257282611903565b915061257d83611903565b9250827fffffffffffffffffffffffffffffffffffffffffffffffffffffffffffffffff038211156125b2576125b161245d565b5b828201905092915050565b60006040820190506125d26000830185611979565b6125df6020830184611979565b9392505050565b7f455243313135353a2069647320616e6420616d6f756e7473206c656e6774682060008201527f6d69736d61746368000000000000000000000000000000000000000000000000602082015250565b6000612642602883611a96565b915061264d826125e6565b604082019050919050565b6000602082019050818103600083015261267181612635565b9050919050565b7f455243313135353a207472616e7366657220746f20746865207a65726f20616460008201527f6472657373000000000000000000000000000000000000000000000000000000602082015250565b60006126d4602583611a96565b91506126df82612678565b604082019050919050565b60006020820190508181036000830152612703816126c7565b9050919050565b7f455243313135353a20696e73756666696369656e742062616c616e636520666f60008201527f72207472616e7366657200000000000000000000000000000000000000000000602082015250565b6000612766602a83611a96565b91506127718261270a565b604082019050919050565b6000602082019050818103600083015261279581612759565b9050919050565b600060408201905081810360008301526127b68185612000565b905081810360208301526127ca8184612000565b90509392505050565b7f455243313135353a2073657474696e6720617070726f76616c2073746174757360008201527f20666f722073656c660000000000000000000000000000000000000000000000602082015250565b600061282f602983611a96565b915061283a826127d3565b604082019050919050565b6000602082019050818103600083015261285e81612822565b9050919050565b7f455243313135353a206275726e2066726f6d20746865207a65726f206164647260008201527f6573730000000000000000000000000000000000000000000000000000000000602082015250565b60006128c1602383611a96565b91506128cc82612865565b604082019050919050565b600060208201905081810360008301526128f0816128b4565b9050919050565b7f455243313135353a206275726e20616d6f756e7420657863656564732062616c60008201527f616e636500000000000000000000000000000000000000000000000000000000602082015250565b6000612953602483611a96565b915061295e826128f7565b604082019050919050565b6000602082019050818103600083015261298281612946565b9050919050565b7f4f4e4c59204f574e455200000000000000000000000000000000000000000000600082015250565b60006129bf600a83611a96565b91506129ca82612989565b602082019050919050565b600060208201905081810360008301526129ee816129b2565b9050919050565b600081519050919050565b600082825260208201905092915050565b6000612a1c826129f5565b612a268185612a00565b9350612a36818560208601611aa7565b612a3f81611ada565b840191505092915050565b600060a082019050612a5f60008301886122b6565b612a6c60208301876122b6565b612a796040830186611979565b612a866060830185611979565b8181036080830152612a988184612a11565b90509695505050505050565b600081519050612ab3816119cf565b92915050565b600060208284031215612acf57612ace61189b565b5b6000612add84828501612aa4565b91505092915050565b60008160e01c9050919050565b600060033d1115612b125760046000803e612b0f600051612ae6565b90505b90565b600060443d1015612b2557612ba8565b612b2d611891565b60043d036004823e80513d602482011167ffffffffffffffff82111715612b55575050612ba8565b808201805167ffffffffffffffff811115612b735750505050612ba8565b80602083010160043d038501811115612b90575050505050612ba8565b612b9f82602001850186611bcd565b82955050505050505b90565b7f455243313135353a207472616e7366657220746f206e6f6e204552433131353560008201527f526563656976657220696d706c656d656e746572000000000000000000000000602082015250565b6000612c07603483611a96565b9150612c1282612bab565b604082019050919050565b60006020820190508181036000830152612c3681612bfa565b9050919050565b7f455243313135353a204552433131353552656365697665722072656a6563746560008201527f6420746f6b656e73000000000000000000000000000000000000000000000000602082015250565b6000612c99602883611a96565b9150612ca482612c3d565b604082019050919050565b60006020820190508181036000830152612cc881612c8c565b9050919050565b600060a082019050612ce460008301886122b6565b612cf160208301876122b6565b8181036040830152612d038186612000565b90508181036060830152612d178185612000565b90508181036080830152612d2b8184612a11565b9050969550505050505056fea2646970667358221220a210efbb002234dbe239f8319e8f1eea80a9547a26b282f0fcb1e660137cb3e464736f6c6343000809003368747470733a2f2f776f78706476667468746d7a6e687776796d656f2e73757061626173652e636f2f73746f726167652f76312f6f626a6563742f7075626c69632f6e6674732f7b69647d2e6a736f6e",
  "devdoc": {
    "kind": "dev",
    "methods": {
      "balanceOf(address,uint256)": {
        "details": "See {IERC1155-balanceOf}. Requirements: - `account` cannot be the zero address."
      },
      "balanceOfBatch(address[],uint256[])": {
        "details": "See {IERC1155-balanceOfBatch}. Requirements: - `accounts` and `ids` must have the same length."
      },
      "isApprovedForAll(address,address)": {
        "details": "See {IERC1155-isApprovedForAll}."
      },
      "safeBatchTransferFrom(address,address,uint256[],uint256[],bytes)": {
        "details": "See {IERC1155-safeBatchTransferFrom}."
      },
      "safeTransferFrom(address,address,uint256,uint256,bytes)": {
        "details": "See {IERC1155-safeTransferFrom}."
      },
      "setApprovalForAll(address,bool)": {
        "details": "See {IERC1155-setApprovalForAll}."
      },
      "supportsInterface(bytes4)": {
        "details": "See {IERC165-supportsInterface}."
      },
      "uri(uint256)": {
        "details": "See {IERC1155MetadataURI-uri}. This implementation returns the same URI for *all* token types. It relies on the token type ID substitution mechanism https://eips.ethereum.org/EIPS/eip-1155#metadata[defined in the EIP]. Clients calling this function must replace the `\\{id\\}` substring with the actual token type ID."
      }
    },
    "version": 1
  },
  "userdoc": {
    "kind": "user",
    "methods": {},
    "version": 1
  },
  "storageLayout": {
    "storage": [
      {
        "astId": 25,
        "contract": "contracts/SoulBound.sol:SoulBound",
        "label": "_balances",
        "offset": 0,
        "slot": "0",
        "type": "t_mapping(t_uint256,t_mapping(t_address,t_uint256))"
      },
      {
        "astId": 31,
        "contract": "contracts/SoulBound.sol:SoulBound",
        "label": "_operatorApprovals",
        "offset": 0,
        "slot": "1",
        "type": "t_mapping(t_address,t_mapping(t_address,t_bool))"
      },
      {
        "astId": 33,
        "contract": "contracts/SoulBound.sol:SoulBound",
        "label": "_uri",
        "offset": 0,
        "slot": "2",
        "type": "t_string_storage"
      },
      {
        "astId": 1761,
        "contract": "contracts/SoulBound.sol:SoulBound",
        "label": "owner",
        "offset": 0,
        "slot": "3",
        "type": "t_address"
      }
    ],
    "types": {
      "t_address": {
        "encoding": "inplace",
        "label": "address",
        "numberOfBytes": "20"
      },
      "t_bool": {
        "encoding": "inplace",
        "label": "bool",
        "numberOfBytes": "1"
      },
      "t_mapping(t_address,t_bool)": {
        "encoding": "mapping",
        "key": "t_address",
        "label": "mapping(address => bool)",
        "numberOfBytes": "32",
        "value": "t_bool"
      },
      "t_mapping(t_address,t_mapping(t_address,t_bool))": {
        "encoding": "mapping",
        "key": "t_address",
        "label": "mapping(address => mapping(address => bool))",
        "numberOfBytes": "32",
        "value": "t_mapping(t_address,t_bool)"
      },
      "t_mapping(t_address,t_uint256)": {
        "encoding": "mapping",
        "key": "t_address",
        "label": "mapping(address => uint256)",
        "numberOfBytes": "32",
        "value": "t_uint256"
      },
      "t_mapping(t_uint256,t_mapping(t_address,t_uint256))": {
        "encoding": "mapping",
        "key": "t_uint256",
        "label": "mapping(uint256 => mapping(address => uint256))",
        "numberOfBytes": "32",
        "value": "t_mapping(t_address,t_uint256)"
      },
      "t_string_storage": {
        "encoding": "bytes",
        "label": "string",
        "numberOfBytes": "32"
      },
      "t_uint256": {
        "encoding": "inplace",
        "label": "uint256",
        "numberOfBytes": "32"
      }
    }
  }
}