{
  "address": "0x5FbDB2315678afecb367f032d93F642f64180aa3",
  "abi": [
    {
      "inputs": [],
      "stateMutability": "nonpayable",
      "type": "constructor"
    },
    {
      "anonymous": false,
      "inputs": [
        {
          "indexed": true,
          "internalType": "address",
          "name": "account",
          "type": "address"
        },
        {
          "indexed": true,
          "internalType": "address",
          "name": "operator",
          "type": "address"
        },
        {
          "indexed": false,
          "internalType": "bool",
          "name": "approved",
          "type": "bool"
        }
      ],
      "name": "ApprovalForAll",
      "type": "event"
    },
    {
      "anonymous": false,
      "inputs": [
        {
          "indexed": false,
          "internalType": "address",
          "name": "from",
          "type": "address"
        },
        {
          "indexed": false,
          "internalType": "address",
          "name": "to",
          "type": "address"
        },
        {
          "indexed": false,
          "internalType": "uint256",
          "name": "token",
          "type": "uint256"
        },
        {
          "indexed": false,
          "internalType": "uint256",
          "name": "amount",
          "type": "uint256"
        }
      ],
      "name": "Transfer",
      "type": "event"
    },
    {
      "anonymous": false,
      "inputs": [
        {
          "indexed": true,
          "internalType": "address",
          "name": "operator",
          "type": "address"
        },
        {
          "indexed": true,
          "internalType": "address",
          "name": "from",
          "type": "address"
        },
        {
          "indexed": true,
          "internalType": "address",
          "name": "to",
          "type": "address"
        },
        {
          "indexed": false,
          "internalType": "uint256[]",
          "name": "ids",
          "type": "uint256[]"
        },
        {
          "indexed": false,
          "internalType": "uint256[]",
          "name": "values",
          "type": "uint256[]"
        }
      ],
      "name": "TransferBatch",
      "type": "event"
    },
    {
      "anonymous": false,
      "inputs": [
        {
          "indexed": true,
          "internalType": "address",
          "name": "operator",
          "type": "address"
        },
        {
          "indexed": true,
          "internalType": "address",
          "name": "from",
          "type": "address"
        },
        {
          "indexed": true,
          "internalType": "address",
          "name": "to",
          "type": "address"
        },
        {
          "indexed": false,
          "internalType": "uint256",
          "name": "id",
          "type": "uint256"
        },
        {
          "indexed": false,
          "internalType": "uint256",
          "name": "value",
          "type": "uint256"
        }
      ],
      "name": "TransferSingle",
      "type": "event"
    },
    {
      "anonymous": false,
      "inputs": [
        {
          "indexed": false,
          "internalType": "string",
          "name": "value",
          "type": "string"
        },
        {
          "indexed": true,
          "internalType": "uint256",
          "name": "id",
          "type": "uint256"
        }
      ],
      "name": "URI",
      "type": "event"
    },
    {
      "inputs": [
        {
          "internalType": "address",
          "name": "account",
          "type": "address"
        },
        {
          "internalType": "uint256",
          "name": "id",
          "type": "uint256"
        }
      ],
      "name": "balanceOf",
      "outputs": [
        {
          "internalType": "uint256",
          "name": "",
          "type": "uint256"
        }
      ],
      "stateMutability": "view",
      "type": "function"
    },
    {
      "inputs": [
        {
          "internalType": "address[]",
          "name": "accounts",
          "type": "address[]"
        },
        {
          "internalType": "uint256[]",
          "name": "ids",
          "type": "uint256[]"
        }
      ],
      "name": "balanceOfBatch",
      "outputs": [
        {
          "internalType": "uint256[]",
          "name": "",
          "type": "uint256[]"
        }
      ],
      "stateMutability": "view",
      "type": "function"
    },
    {
      "inputs": [
        {
          "internalType": "address",
          "name": "from",
          "type": "address"
        },
        {
          "internalType": "uint256",
          "name": "id",
          "type": "uint256"
        },
        {
          "internalType": "uint256",
          "name": "amount",
          "type": "uint256"
        }
      ],
      "name": "burn",
      "outputs": [],
      "stateMutability": "nonpayable",
      "type": "function"
    },
    {
      "inputs": [
        {
          "internalType": "address",
          "name": "account",
          "type": "address"
        },
        {
          "internalType": "address",
          "name": "operator",
          "type": "address"
        }
      ],
      "name": "isApprovedForAll",
      "outputs": [
        {
          "internalType": "bool",
          "name": "",
          "type": "bool"
        }
      ],
      "stateMutability": "view",
      "type": "function"
    },
    {
      "inputs": [
        {
          "internalType": "address",
          "name": "to",
          "type": "address"
        },
        {
          "internalType": "uint256",
          "name": "id",
          "type": "uint256"
        },
        {
          "internalType": "uint256",
          "name": "amount",
          "type": "uint256"
        }
      ],
      "name": "mint",
      "outputs": [],
      "stateMutability": "nonpayable",
      "type": "function"
    },
    {
      "inputs": [
        {
          "internalType": "address",
          "name": "from",
          "type": "address"
        },
        {
          "internalType": "address",
          "name": "to",
          "type": "address"
        },
        {
          "internalType": "uint256[]",
          "name": "ids",
          "type": "uint256[]"
        },
        {
          "internalType": "uint256[]",
          "name": "amounts",
          "type": "uint256[]"
        },
        {
          "internalType": "bytes",
          "name": "data",
          "type": "bytes"
        }
      ],
      "name": "safeBatchTransferFrom",
      "outputs": [],
      "stateMutability": "nonpayable",
      "type": "function"
    },
    {
      "inputs": [
        {
          "internalType": "address",
          "name": "from",
          "type": "address"
        },
        {
          "internalType": "address",
          "name": "to",
          "type": "address"
        },
        {
          "internalType": "uint256",
          "name": "id",
          "type": "uint256"
        },
        {
          "internalType": "uint256",
          "name": "amount",
          "type": "uint256"
        },
        {
          "internalType": "bytes",
          "name": "data",
          "type": "bytes"
        }
      ],
      "name": "safeTransferFrom",
      "outputs": [],
      "stateMutability": "nonpayable",
      "type": "function"
    },
    {
      "inputs": [
        {
          "internalType": "address",
          "name": "operator",
          "type": "address"
        },
        {
          "internalType": "bool",
          "name": "approved",
          "type": "bool"
        }
      ],
      "name": "setApprovalForAll",
      "outputs": [],
      "stateMutability": "nonpayable",
      "type": "function"
    },
    {
      "inputs": [
        {
          "internalType": "bytes4",
          "name": "interfaceId",
          "type": "bytes4"
        }
      ],
      "name": "supportsInterface",
      "outputs": [
        {
          "internalType": "bool",
          "name": "",
          "type": "bool"
        }
      ],
      "stateMutability": "view",
      "type": "function"
    },
    {
      "inputs": [
        {
          "internalType": "address",
          "name": "from",
          "type": "address"
        },
        {
          "internalType": "address",
          "name": "to",
          "type": "address"
        },
        {
          "internalType": "uint256",
          "name": "id",
          "type": "uint256"
        },
        {
          "internalType": "uint256",
          "name": "amount",
          "type": "uint256"
        }
      ],
      "name": "transfer",
      "outputs": [],
      "stateMutability": "nonpayable",
      "type": "function"
    },
    {
      "inputs": [
        {
          "internalType": "uint256",
          "name": "",
          "type": "uint256"
        }
      ],
      "name": "uri",
      "outputs": [
        {
          "internalType": "string",
          "name": "",
          "type": "string"
        }
      ],
      "stateMutability": "view",
      "type": "function"
    }
  ],
  "transactionHash": "0xbe67019f182a260d83b6280f5fe905e92bb3f04629bbf3e1f4d5a419c8b50292",
  "args": [],
  "numDeployments": 1,
  "solcInputHash": "a2e79c2274dbf21bda593186ee456ae7",
  "bytecode": "0x60806040523480156200001157600080fd5b5060405180608001604052806050815260200162002f24605091396200003d816200008560201b60201c565b5033600360006101000a81548173ffffffffffffffffffffffffffffffffffffffff021916908373ffffffffffffffffffffffffffffffffffffffff160217905550620001b6565b80600290805190602001906200009d929190620000a1565b5050565b828054620000af9062000180565b90600052602060002090601f016020900481019282620000d357600085556200011f565b82601f10620000ee57805160ff19168380011785556200011f565b828001600101855582156200011f579182015b828111156200011e57825182559160200191906001019062000101565b5b5090506200012e919062000132565b5090565b5b808211156200014d57600081600090555060010162000133565b5090565b7f4e487b7100000000000000000000000000000000000000000000000000000000600052602260045260246000fd5b600060028204905060018216806200019957607f821691505b60208210811415620001b057620001af62000151565b5b50919050565b612d5e80620001c66000396000f3fe608060405234801561001057600080fd5b50600436106100a85760003560e01c80632eb2c2d6116100715780632eb2c2d6146101755780634e1273f414610191578063a22cb465146101c1578063e985e9c5146101dd578063f242432a1461020d578063f5298aca14610229576100a8565b8062fdd58e146100ad57806301ffc9a7146100dd5780630411b2521461010d5780630e89341c14610129578063156e29f614610159575b600080fd5b6100c760048036038101906100c2919061192f565b610245565b6040516100d4919061197e565b60405180910390f35b6100f760048036038101906100f291906119f1565b61030e565b6040516101049190611a39565b60405180910390f35b61012760048036038101906101229190611a54565b6103f0565b005b610143600480360381019061013e9190611abb565b61044f565b6040516101509190611b81565b60405180910390f35b610173600480360381019061016e9190611ba3565b6104e3565b005b61018f600480360381019061018a9190611df3565b610562565b005b6101ab60048036038101906101a69190611f85565b610603565b6040516101b891906120bb565b60405180910390f35b6101db60048036038101906101d69190612109565b61071c565b005b6101f760048036038101906101f29190612149565b610732565b6040516102049190611a39565b60405180910390f35b61022760048036038101906102229190612189565b6107c6565b005b610243600480360381019061023e9190611ba3565b610867565b005b60008073ffffffffffffffffffffffffffffffffffffffff168373ffffffffffffffffffffffffffffffffffffffff1614156102b6576040517f08c379a00000000000000000000000000000000000000000000000000000000081526004016102ad90612292565b60405180910390fd5b60008083815260200190815260200160002060008473ffffffffffffffffffffffffffffffffffffffff1673ffffffffffffffffffffffffffffffffffffffff16815260200190815260200160002054905092915050565b60007fd9b67a26000000000000000000000000000000000000000000000000000000007bffffffffffffffffffffffffffffffffffffffffffffffffffffffff1916827bffffffffffffffffffffffffffffffffffffffffffffffffffffffff191614806103d957507f0e89341c000000000000000000000000000000000000000000000000000000007bffffffffffffffffffffffffffffffffffffffffffffffffffffffff1916827bffffffffffffffffffffffffffffffffffffffffffffffffffffffff1916145b806103e957506103e882610877565b5b9050919050565b7f9ed053bb818ff08b8353cd46f78db1f0799f31c9e4458fdb425c10eccd2efc448484848460405161042594939291906122c1565b60405180910390a161044984848484604051806020016040528060008152506107c6565b50505050565b60606002805461045e90612335565b80601f016020809104026020016040519081016040528092919081815260200182805461048a90612335565b80156104d75780601f106104ac576101008083540402835291602001916104d7565b820191906000526020600020905b8154815290600101906020018083116104ba57829003601f168201915b50505050509050919050565b6104fe838383604051806020016040528060008152506108e1565b7f9ed053bb818ff08b8353cd46f78db1f0799f31c9e4458fdb425c10eccd2efc44600360009054906101000a900473ffffffffffffffffffffffffffffffffffffffff1684848460405161055594939291906122c1565b60405180910390a1505050565b61056a610a92565b73ffffffffffffffffffffffffffffffffffffffff168573ffffffffffffffffffffffffffffffffffffffff1614806105b057506105af856105aa610a92565b610732565b5b6105ef576040517f08c379a00000000000000000000000000000000000000000000000000000000081526004016105e6906123d9565b60405180910390fd5b6105fc8585858585610a9a565b5050505050565b60608151835114610649576040517f08c379a00000000000000000000000000000000000000000000000000000000081526004016106409061246b565b60405180910390fd5b6000835167ffffffffffffffff81111561066657610665611bfb565b5b6040519080825280602002602001820160405280156106945781602001602082028036833780820191505090505b50905060005b8451811015610711576106e18582815181106106b9576106b861248b565b5b60200260200101518583815181106106d4576106d361248b565b5b6020026020010151610245565b8282815181106106f4576106f361248b565b5b6020026020010181815250508061070a906124e9565b905061069a565b508091505092915050565b61072e610727610a92565b8383610dbc565b5050565b6000600160008473ffffffffffffffffffffffffffffffffffffffff1673ffffffffffffffffffffffffffffffffffffffff16815260200190815260200160002060008373ffffffffffffffffffffffffffffffffffffffff1673ffffffffffffffffffffffffffffffffffffffff16815260200190815260200160002060009054906101000a900460ff16905092915050565b6107ce610a92565b73ffffffffffffffffffffffffffffffffffffffff168573ffffffffffffffffffffffffffffffffffffffff16148061081457506108138561080e610a92565b610732565b5b610853576040517f08c379a000000000000000000000000000000000000000000000000000000000815260040161084a906123d9565b60405180910390fd5b6108608585858585610f29565b5050505050565b6108728383836111c5565b505050565b60007f01ffc9a7000000000000000000000000000000000000000000000000000000007bffffffffffffffffffffffffffffffffffffffffffffffffffffffff1916827bffffffffffffffffffffffffffffffffffffffffffffffffffffffff1916149050919050565b600073ffffffffffffffffffffffffffffffffffffffff168473ffffffffffffffffffffffffffffffffffffffff161415610951576040517f08c379a0000000000000000000000000000000000000000000000000000000008152600401610948906125a4565b60405180910390fd5b600061095b610a92565b905060006109688561140c565b905060006109758561140c565b905061098683600089858589611486565b8460008088815260200190815260200160002060008973ffffffffffffffffffffffffffffffffffffffff1673ffffffffffffffffffffffffffffffffffffffff16815260200190815260200160002060008282546109e591906125c4565b925050819055508673ffffffffffffffffffffffffffffffffffffffff16600073ffffffffffffffffffffffffffffffffffffffff168473ffffffffffffffffffffffffffffffffffffffff167fc3d58168c5ae7397731d063d5bbf3d657854427343f4c083240f7aacaa2d0f628989604051610a6392919061261a565b60405180910390a4610a7a8360008985858961148e565b610a8983600089898989611496565b50505050505050565b600033905090565b8151835114610ade576040517f08c379a0000000000000000000000000000000000000000000000000000000008152600401610ad5906126b5565b60405180910390fd5b600073ffffffffffffffffffffffffffffffffffffffff168473ffffffffffffffffffffffffffffffffffffffff161415610b4e576040517f08c379a0000000000000000000000000000000000000000000000000000000008152600401610b4590612747565b60405180910390fd5b6000610b58610a92565b9050610b68818787878787611486565b60005b8451811015610d19576000858281518110610b8957610b8861248b565b5b602002602001015190506000858381518110610ba857610ba761248b565b5b60200260200101519050600080600084815260200190815260200160002060008b73ffffffffffffffffffffffffffffffffffffffff1673ffffffffffffffffffffffffffffffffffffffff16815260200190815260200160002054905081811015610c49576040517f08c379a0000000000000000000000000000000000000000000000000000000008152600401610c40906127d9565b60405180910390fd5b81810360008085815260200190815260200160002060008c73ffffffffffffffffffffffffffffffffffffffff1673ffffffffffffffffffffffffffffffffffffffff168152602001908152602001600020819055508160008085815260200190815260200160002060008b73ffffffffffffffffffffffffffffffffffffffff1673ffffffffffffffffffffffffffffffffffffffff1681526020019081526020016000206000828254610cfe91906125c4565b9250508190555050505080610d12906124e9565b9050610b6b565b508473ffffffffffffffffffffffffffffffffffffffff168673ffffffffffffffffffffffffffffffffffffffff168273ffffffffffffffffffffffffffffffffffffffff167f4a39dc06d4c0dbc64b70af90fd698a233a518aa5d07e595d983b8c0526c8f7fb8787604051610d909291906127f9565b60405180910390a4610da681878787878761148e565b610db481878787878761167d565b505050505050565b8173ffffffffffffffffffffffffffffffffffffffff168373ffffffffffffffffffffffffffffffffffffffff161415610e2b576040517f08c379a0000000000000000000000000000000000000000000000000000000008152600401610e22906128a2565b60405180910390fd5b80600160008573ffffffffffffffffffffffffffffffffffffffff1673ffffffffffffffffffffffffffffffffffffffff16815260200190815260200160002060008473ffffffffffffffffffffffffffffffffffffffff1673ffffffffffffffffffffffffffffffffffffffff16815260200190815260200160002060006101000a81548160ff0219169083151502179055508173ffffffffffffffffffffffffffffffffffffffff168373ffffffffffffffffffffffffffffffffffffffff167f17307eab39ab6107e8899845ad3d59bd9653f200f220920489ca2b5937696c3183604051610f1c9190611a39565b60405180910390a3505050565b600073ffffffffffffffffffffffffffffffffffffffff168473ffffffffffffffffffffffffffffffffffffffff161415610f99576040517f08c379a0000000000000000000000000000000000000000000000000000000008152600401610f9090612747565b60405180910390fd5b6000610fa3610a92565b90506000610fb08561140c565b90506000610fbd8561140c565b9050610fcd838989858589611486565b600080600088815260200190815260200160002060008a73ffffffffffffffffffffffffffffffffffffffff1673ffffffffffffffffffffffffffffffffffffffff16815260200190815260200160002054905085811015611064576040517f08c379a000000000000000000000000000000000000000000000000000000000815260040161105b906127d9565b60405180910390fd5b85810360008089815260200190815260200160002060008b73ffffffffffffffffffffffffffffffffffffffff1673ffffffffffffffffffffffffffffffffffffffff168152602001908152602001600020819055508560008089815260200190815260200160002060008a73ffffffffffffffffffffffffffffffffffffffff1673ffffffffffffffffffffffffffffffffffffffff168152602001908152602001600020600082825461111991906125c4565b925050819055508773ffffffffffffffffffffffffffffffffffffffff168973ffffffffffffffffffffffffffffffffffffffff168573ffffffffffffffffffffffffffffffffffffffff167fc3d58168c5ae7397731d063d5bbf3d657854427343f4c083240f7aacaa2d0f628a8a60405161119692919061261a565b60405180910390a46111ac848a8a86868a61148e565b6111ba848a8a8a8a8a611496565b505050505050505050565b600073ffffffffffffffffffffffffffffffffffffffff168373ffffffffffffffffffffffffffffffffffffffff161415611235576040517f08c379a000000000000000000000000000000000000000000000000000000000815260040161122c90612934565b60405180910390fd5b600061123f610a92565b9050600061124c8461140c565b905060006112598461140c565b905061127983876000858560405180602001604052806000815250611486565b600080600087815260200190815260200160002060008873ffffffffffffffffffffffffffffffffffffffff1673ffffffffffffffffffffffffffffffffffffffff16815260200190815260200160002054905084811015611310576040517f08c379a0000000000000000000000000000000000000000000000000000000008152600401611307906129c6565b60405180910390fd5b84810360008088815260200190815260200160002060008973ffffffffffffffffffffffffffffffffffffffff1673ffffffffffffffffffffffffffffffffffffffff16815260200190815260200160002081905550600073ffffffffffffffffffffffffffffffffffffffff168773ffffffffffffffffffffffffffffffffffffffff168573ffffffffffffffffffffffffffffffffffffffff167fc3d58168c5ae7397731d063d5bbf3d657854427343f4c083240f7aacaa2d0f6289896040516113dd92919061261a565b60405180910390a46114038488600086866040518060200160405280600081525061148e565b50505050505050565b60606000600167ffffffffffffffff81111561142b5761142a611bfb565b5b6040519080825280602002602001820160405280156114595781602001602082028036833780820191505090505b50905082816000815181106114715761147061248b565b5b60200260200101818152505080915050919050565b505050505050565b505050505050565b6114b58473ffffffffffffffffffffffffffffffffffffffff16611864565b15611675578373ffffffffffffffffffffffffffffffffffffffff1663f23a6e6187878686866040518663ffffffff1660e01b81526004016114fb959493929190612a3b565b602060405180830381600087803b15801561151557600080fd5b505af192505050801561154657506040513d601f19601f820116820180604052508101906115439190612aaa565b60015b6115ec57611552612ae4565b806308c379a014156115af5750611567612b06565b8061157257506115b1565b806040517f08c379a00000000000000000000000000000000000000000000000000000000081526004016115a69190611b81565b60405180910390fd5b505b6040517f08c379a00000000000000000000000000000000000000000000000000000000081526004016115e390612c0e565b60405180910390fd5b63f23a6e6160e01b7bffffffffffffffffffffffffffffffffffffffffffffffffffffffff1916817bffffffffffffffffffffffffffffffffffffffffffffffffffffffff191614611673576040517f08c379a000000000000000000000000000000000000000000000000000000000815260040161166a90612ca0565b60405180910390fd5b505b505050505050565b61169c8473ffffffffffffffffffffffffffffffffffffffff16611864565b1561185c578373ffffffffffffffffffffffffffffffffffffffff1663bc197c8187878686866040518663ffffffff1660e01b81526004016116e2959493929190612cc0565b602060405180830381600087803b1580156116fc57600080fd5b505af192505050801561172d57506040513d601f19601f8201168201806040525081019061172a9190612aaa565b60015b6117d357611739612ae4565b806308c379a01415611796575061174e612b06565b806117595750611798565b806040517f08c379a000000000000000000000000000000000000000000000000000000000815260040161178d9190611b81565b60405180910390fd5b505b6040517f08c379a00000000000000000000000000000000000000000000000000000000081526004016117ca90612c0e565b60405180910390fd5b63bc197c8160e01b7bffffffffffffffffffffffffffffffffffffffffffffffffffffffff1916817bffffffffffffffffffffffffffffffffffffffffffffffffffffffff19161461185a576040517f08c379a000000000000000000000000000000000000000000000000000000000815260040161185190612ca0565b60405180910390fd5b505b505050505050565b6000808273ffffffffffffffffffffffffffffffffffffffff163b119050919050565b6000604051905090565b600080fd5b600080fd5b600073ffffffffffffffffffffffffffffffffffffffff82169050919050565b60006118c68261189b565b9050919050565b6118d6816118bb565b81146118e157600080fd5b50565b6000813590506118f3816118cd565b92915050565b6000819050919050565b61190c816118f9565b811461191757600080fd5b50565b60008135905061192981611903565b92915050565b6000806040838503121561194657611945611891565b5b6000611954858286016118e4565b92505060206119658582860161191a565b9150509250929050565b611978816118f9565b82525050565b6000602082019050611993600083018461196f565b92915050565b60007fffffffff0000000000000000000000000000000000000000000000000000000082169050919050565b6119ce81611999565b81146119d957600080fd5b50565b6000813590506119eb816119c5565b92915050565b600060208284031215611a0757611a06611891565b5b6000611a15848285016119dc565b91505092915050565b60008115159050919050565b611a3381611a1e565b82525050565b6000602082019050611a4e6000830184611a2a565b92915050565b60008060008060808587031215611a6e57611a6d611891565b5b6000611a7c878288016118e4565b9450506020611a8d878288016118e4565b9350506040611a9e8782880161191a565b9250506060611aaf8782880161191a565b91505092959194509250565b600060208284031215611ad157611ad0611891565b5b6000611adf8482850161191a565b91505092915050565b600081519050919050565b600082825260208201905092915050565b60005b83811015611b22578082015181840152602081019050611b07565b83811115611b31576000848401525b50505050565b6000601f19601f8301169050919050565b6000611b5382611ae8565b611b5d8185611af3565b9350611b6d818560208601611b04565b611b7681611b37565b840191505092915050565b60006020820190508181036000830152611b9b8184611b48565b905092915050565b600080600060608486031215611bbc57611bbb611891565b5b6000611bca868287016118e4565b9350506020611bdb8682870161191a565b9250506040611bec8682870161191a565b9150509250925092565b600080fd5b7f4e487b7100000000000000000000000000000000000000000000000000000000600052604160045260246000fd5b611c3382611b37565b810181811067ffffffffffffffff82111715611c5257611c51611bfb565b5b80604052505050565b6000611c65611887565b9050611c718282611c2a565b919050565b600067ffffffffffffffff821115611c9157611c90611bfb565b5b602082029050602081019050919050565b600080fd5b6000611cba611cb584611c76565b611c5b565b90508083825260208201905060208402830185811115611cdd57611cdc611ca2565b5b835b81811015611d065780611cf2888261191a565b845260208401935050602081019050611cdf565b5050509392505050565b600082601f830112611d2557611d24611bf6565b5b8135611d35848260208601611ca7565b91505092915050565b600080fd5b600067ffffffffffffffff821115611d5e57611d5d611bfb565b5b611d6782611b37565b9050602081019050919050565b82818337600083830152505050565b6000611d96611d9184611d43565b611c5b565b905082815260208101848484011115611db257611db1611d3e565b5b611dbd848285611d74565b509392505050565b600082601f830112611dda57611dd9611bf6565b5b8135611dea848260208601611d83565b91505092915050565b600080600080600060a08688031215611e0f57611e0e611891565b5b6000611e1d888289016118e4565b9550506020611e2e888289016118e4565b945050604086013567ffffffffffffffff811115611e4f57611e4e611896565b5b611e5b88828901611d10565b935050606086013567ffffffffffffffff811115611e7c57611e7b611896565b5b611e8888828901611d10565b925050608086013567ffffffffffffffff811115611ea957611ea8611896565b5b611eb588828901611dc5565b9150509295509295909350565b600067ffffffffffffffff821115611edd57611edc611bfb565b5b602082029050602081019050919050565b6000611f01611efc84611ec2565b611c5b565b90508083825260208201905060208402830185811115611f2457611f23611ca2565b5b835b81811015611f4d5780611f3988826118e4565b845260208401935050602081019050611f26565b5050509392505050565b600082601f830112611f6c57611f6b611bf6565b5b8135611f7c848260208601611eee565b91505092915050565b60008060408385031215611f9c57611f9b611891565b5b600083013567ffffffffffffffff811115611fba57611fb9611896565b5b611fc685828601611f57565b925050602083013567ffffffffffffffff811115611fe757611fe6611896565b5b611ff385828601611d10565b9150509250929050565b600081519050919050565b600082825260208201905092915050565b6000819050602082019050919050565b612032816118f9565b82525050565b60006120448383612029565b60208301905092915050565b6000602082019050919050565b600061206882611ffd565b6120728185612008565b935061207d83612019565b8060005b838110156120ae5781516120958882612038565b97506120a083612050565b925050600181019050612081565b5085935050505092915050565b600060208201905081810360008301526120d5818461205d565b905092915050565b6120e681611a1e565b81146120f157600080fd5b50565b600081359050612103816120dd565b92915050565b600080604083850312156121205761211f611891565b5b600061212e858286016118e4565b925050602061213f858286016120f4565b9150509250929050565b600080604083850312156121605761215f611891565b5b600061216e858286016118e4565b925050602061217f858286016118e4565b9150509250929050565b600080600080600060a086880312156121a5576121a4611891565b5b60006121b3888289016118e4565b95505060206121c4888289016118e4565b94505060406121d58882890161191a565b93505060606121e68882890161191a565b925050608086013567ffffffffffffffff81111561220757612206611896565b5b61221388828901611dc5565b9150509295509295909350565b7f455243313135353a2061646472657373207a65726f206973206e6f742061207660008201527f616c6964206f776e657200000000000000000000000000000000000000000000602082015250565b600061227c602a83611af3565b915061228782612220565b604082019050919050565b600060208201905081810360008301526122ab8161226f565b9050919050565b6122bb816118bb565b82525050565b60006080820190506122d660008301876122b2565b6122e360208301866122b2565b6122f0604083018561196f565b6122fd606083018461196f565b95945050505050565b7f4e487b7100000000000000000000000000000000000000000000000000000000600052602260045260246000fd5b6000600282049050600182168061234d57607f821691505b6020821081141561236157612360612306565b5b50919050565b7f455243313135353a2063616c6c6572206973206e6f7420746f6b656e206f776e60008201527f6572206e6f7220617070726f7665640000000000000000000000000000000000602082015250565b60006123c3602f83611af3565b91506123ce82612367565b604082019050919050565b600060208201905081810360008301526123f2816123b6565b9050919050565b7f455243313135353a206163636f756e747320616e6420696473206c656e67746860008201527f206d69736d617463680000000000000000000000000000000000000000000000602082015250565b6000612455602983611af3565b9150612460826123f9565b604082019050919050565b6000602082019050818103600083015261248481612448565b9050919050565b7f4e487b7100000000000000000000000000000000000000000000000000000000600052603260045260246000fd5b7f4e487b7100000000000000000000000000000000000000000000000000000000600052601160045260246000fd5b60006124f4826118f9565b91507fffffffffffffffffffffffffffffffffffffffffffffffffffffffffffffffff821415612527576125266124ba565b5b600182019050919050565b7f455243313135353a206d696e7420746f20746865207a65726f2061646472657360008201527f7300000000000000000000000000000000000000000000000000000000000000602082015250565b600061258e602183611af3565b915061259982612532565b604082019050919050565b600060208201905081810360008301526125bd81612581565b9050919050565b60006125cf826118f9565b91506125da836118f9565b9250827fffffffffffffffffffffffffffffffffffffffffffffffffffffffffffffffff0382111561260f5761260e6124ba565b5b828201905092915050565b600060408201905061262f600083018561196f565b61263c602083018461196f565b9392505050565b7f455243313135353a2069647320616e6420616d6f756e7473206c656e6774682060008201527f6d69736d61746368000000000000000000000000000000000000000000000000602082015250565b600061269f602883611af3565b91506126aa82612643565b604082019050919050565b600060208201905081810360008301526126ce81612692565b9050919050565b7f455243313135353a207472616e7366657220746f20746865207a65726f20616460008201527f6472657373000000000000000000000000000000000000000000000000000000602082015250565b6000612731602583611af3565b915061273c826126d5565b604082019050919050565b6000602082019050818103600083015261276081612724565b9050919050565b7f455243313135353a20696e73756666696369656e742062616c616e636520666f60008201527f72207472616e7366657200000000000000000000000000000000000000000000602082015250565b60006127c3602a83611af3565b91506127ce82612767565b604082019050919050565b600060208201905081810360008301526127f2816127b6565b9050919050565b60006040820190508181036000830152612813818561205d565b90508181036020830152612827818461205d565b90509392505050565b7f455243313135353a2073657474696e6720617070726f76616c2073746174757360008201527f20666f722073656c660000000000000000000000000000000000000000000000602082015250565b600061288c602983611af3565b915061289782612830565b604082019050919050565b600060208201905081810360008301526128bb8161287f565b9050919050565b7f455243313135353a206275726e2066726f6d20746865207a65726f206164647260008201527f6573730000000000000000000000000000000000000000000000000000000000602082015250565b600061291e602383611af3565b9150612929826128c2565b604082019050919050565b6000602082019050818103600083015261294d81612911565b9050919050565b7f455243313135353a206275726e20616d6f756e7420657863656564732062616c60008201527f616e636500000000000000000000000000000000000000000000000000000000602082015250565b60006129b0602483611af3565b91506129bb82612954565b604082019050919050565b600060208201905081810360008301526129df816129a3565b9050919050565b600081519050919050565b600082825260208201905092915050565b6000612a0d826129e6565b612a1781856129f1565b9350612a27818560208601611b04565b612a3081611b37565b840191505092915050565b600060a082019050612a5060008301886122b2565b612a5d60208301876122b2565b612a6a604083018661196f565b612a77606083018561196f565b8181036080830152612a898184612a02565b90509695505050505050565b600081519050612aa4816119c5565b92915050565b600060208284031215612ac057612abf611891565b5b6000612ace84828501612a95565b91505092915050565b60008160e01c9050919050565b600060033d1115612b035760046000803e612b00600051612ad7565b90505b90565b600060443d1015612b1657612b99565b612b1e611887565b60043d036004823e80513d602482011167ffffffffffffffff82111715612b46575050612b99565b808201805167ffffffffffffffff811115612b645750505050612b99565b80602083010160043d038501811115612b81575050505050612b99565b612b9082602001850186611c2a565b82955050505050505b90565b7f455243313135353a207472616e7366657220746f206e6f6e204552433131353560008201527f526563656976657220696d706c656d656e746572000000000000000000000000602082015250565b6000612bf8603483611af3565b9150612c0382612b9c565b604082019050919050565b60006020820190508181036000830152612c2781612beb565b9050919050565b7f455243313135353a204552433131353552656365697665722072656a6563746560008201527f6420746f6b656e73000000000000000000000000000000000000000000000000602082015250565b6000612c8a602883611af3565b9150612c9582612c2e565b604082019050919050565b60006020820190508181036000830152612cb981612c7d565b9050919050565b600060a082019050612cd560008301886122b2565b612ce260208301876122b2565b8181036040830152612cf4818661205d565b90508181036060830152612d08818561205d565b90508181036080830152612d1c8184612a02565b9050969550505050505056fea26469706673582212209fb2356a053561c8edfb2d6c64f84efeeb516c8907abf290e9ce70cc6209bb9864736f6c6343000809003368747470733a2f2f776f78706476667468746d7a6e687776796d656f2e73757061626173652e636f2f73746f726167652f76312f6f626a6563742f7075626c69632f6e6674732f7b69647d2e6a736f6e",
  "devdoc": {
    "kind": "dev",
    "methods": {
      "balanceOf(address,uint256)": {
        "details": "See {IERC1155-balanceOf}. Requirements: - `account` cannot be the zero address."
      },
      "balanceOfBatch(address[],uint256[])": {
        "details": "See {IERC1155-balanceOfBatch}. Requirements: - `accounts` and `ids` must have the same length."
      },
      "isApprovedForAll(address,address)": {
        "details": "See {IERC1155-isApprovedForAll}."
      },
      "safeBatchTransferFrom(address,address,uint256[],uint256[],bytes)": {
        "details": "See {IERC1155-safeBatchTransferFrom}."
      },
      "safeTransferFrom(address,address,uint256,uint256,bytes)": {
        "details": "See {IERC1155-safeTransferFrom}."
      },
      "setApprovalForAll(address,bool)": {
        "details": "See {IERC1155-setApprovalForAll}."
      },
      "supportsInterface(bytes4)": {
        "details": "See {IERC165-supportsInterface}."
      },
      "uri(uint256)": {
        "details": "See {IERC1155MetadataURI-uri}. This implementation returns the same URI for *all* token types. It relies on the token type ID substitution mechanism https://eips.ethereum.org/EIPS/eip-1155#metadata[defined in the EIP]. Clients calling this function must replace the `\\{id\\}` substring with the actual token type ID."
      }
    },
    "version": 1
  },
  "userdoc": {
    "kind": "user",
    "methods": {},
    "version": 1
  },
  "storageLayout": {
    "storage": [
      {
        "astId": 25,
        "contract": "contracts/Deewarr.sol:Deewarr",
        "label": "_balances",
        "offset": 0,
        "slot": "0",
        "type": "t_mapping(t_uint256,t_mapping(t_address,t_uint256))"
      },
      {
        "astId": 31,
        "contract": "contracts/Deewarr.sol:Deewarr",
        "label": "_operatorApprovals",
        "offset": 0,
        "slot": "1",
        "type": "t_mapping(t_address,t_mapping(t_address,t_bool))"
      },
      {
        "astId": 33,
        "contract": "contracts/Deewarr.sol:Deewarr",
        "label": "_uri",
        "offset": 0,
        "slot": "2",
        "type": "t_string_storage"
      },
      {
        "astId": 1761,
        "contract": "contracts/Deewarr.sol:Deewarr",
        "label": "owner",
        "offset": 0,
        "slot": "3",
        "type": "t_address"
      }
    ],
    "types": {
      "t_address": {
        "encoding": "inplace",
        "label": "address",
        "numberOfBytes": "20"
      },
      "t_bool": {
        "encoding": "inplace",
        "label": "bool",
        "numberOfBytes": "1"
      },
      "t_mapping(t_address,t_bool)": {
        "encoding": "mapping",
        "key": "t_address",
        "label": "mapping(address => bool)",
        "numberOfBytes": "32",
        "value": "t_bool"
      },
      "t_mapping(t_address,t_mapping(t_address,t_bool))": {
        "encoding": "mapping",
        "key": "t_address",
        "label": "mapping(address => mapping(address => bool))",
        "numberOfBytes": "32",
        "value": "t_mapping(t_address,t_bool)"
      },
      "t_mapping(t_address,t_uint256)": {
        "encoding": "mapping",
        "key": "t_address",
        "label": "mapping(address => uint256)",
        "numberOfBytes": "32",
        "value": "t_uint256"
      },
      "t_mapping(t_uint256,t_mapping(t_address,t_uint256))": {
        "encoding": "mapping",
        "key": "t_uint256",
        "label": "mapping(uint256 => mapping(address => uint256))",
        "numberOfBytes": "32",
        "value": "t_mapping(t_address,t_uint256)"
      },
      "t_string_storage": {
        "encoding": "bytes",
        "label": "string",
        "numberOfBytes": "32"
      },
      "t_uint256": {
        "encoding": "inplace",
        "label": "uint256",
        "numberOfBytes": "32"
      }
    }
  }
}