{
  "address": "0x5FbDB2315678afecb367f032d93F642f64180aa3",
  "abi": [
    {
      "inputs": [],
      "stateMutability": "nonpayable",
      "type": "constructor"
    },
    {
      "anonymous": false,
      "inputs": [
        {
          "indexed": true,
          "internalType": "address",
          "name": "account",
          "type": "address"
        },
        {
          "indexed": true,
          "internalType": "address",
          "name": "operator",
          "type": "address"
        },
        {
          "indexed": false,
          "internalType": "bool",
          "name": "approved",
          "type": "bool"
        }
      ],
      "name": "ApprovalForAll",
      "type": "event"
    },
    {
      "anonymous": false,
      "inputs": [
        {
          "indexed": true,
          "internalType": "address",
          "name": "operator",
          "type": "address"
        },
        {
          "indexed": true,
          "internalType": "address",
          "name": "from",
          "type": "address"
        },
        {
          "indexed": true,
          "internalType": "address",
          "name": "to",
          "type": "address"
        },
        {
          "indexed": false,
          "internalType": "uint256[]",
          "name": "ids",
          "type": "uint256[]"
        },
        {
          "indexed": false,
          "internalType": "uint256[]",
          "name": "values",
          "type": "uint256[]"
        }
      ],
      "name": "TransferBatch",
      "type": "event"
    },
    {
      "anonymous": false,
      "inputs": [
        {
          "indexed": true,
          "internalType": "address",
          "name": "operator",
          "type": "address"
        },
        {
          "indexed": true,
          "internalType": "address",
          "name": "from",
          "type": "address"
        },
        {
          "indexed": true,
          "internalType": "address",
          "name": "to",
          "type": "address"
        },
        {
          "indexed": false,
          "internalType": "uint256",
          "name": "id",
          "type": "uint256"
        },
        {
          "indexed": false,
          "internalType": "uint256",
          "name": "value",
          "type": "uint256"
        }
      ],
      "name": "TransferSingle",
      "type": "event"
    },
    {
      "anonymous": false,
      "inputs": [
        {
          "indexed": false,
          "internalType": "string",
          "name": "value",
          "type": "string"
        },
        {
          "indexed": true,
          "internalType": "uint256",
          "name": "id",
          "type": "uint256"
        }
      ],
      "name": "URI",
      "type": "event"
    },
    {
      "inputs": [
        {
          "internalType": "address",
          "name": "account",
          "type": "address"
        },
        {
          "internalType": "uint256",
          "name": "id",
          "type": "uint256"
        }
      ],
      "name": "balanceOf",
      "outputs": [
        {
          "internalType": "uint256",
          "name": "",
          "type": "uint256"
        }
      ],
      "stateMutability": "view",
      "type": "function"
    },
    {
      "inputs": [
        {
          "internalType": "address[]",
          "name": "accounts",
          "type": "address[]"
        },
        {
          "internalType": "uint256[]",
          "name": "ids",
          "type": "uint256[]"
        }
      ],
      "name": "balanceOfBatch",
      "outputs": [
        {
          "internalType": "uint256[]",
          "name": "",
          "type": "uint256[]"
        }
      ],
      "stateMutability": "view",
      "type": "function"
    },
    {
      "inputs": [
        {
          "internalType": "address",
          "name": "from",
          "type": "address"
        },
        {
          "internalType": "uint256",
          "name": "id",
          "type": "uint256"
        },
        {
          "internalType": "uint256",
          "name": "amount",
          "type": "uint256"
        }
      ],
      "name": "burn",
      "outputs": [],
      "stateMutability": "nonpayable",
      "type": "function"
    },
    {
      "inputs": [
        {
          "internalType": "address",
          "name": "account",
          "type": "address"
        },
        {
          "internalType": "address",
          "name": "operator",
          "type": "address"
        }
      ],
      "name": "isApprovedForAll",
      "outputs": [
        {
          "internalType": "bool",
          "name": "",
          "type": "bool"
        }
      ],
      "stateMutability": "view",
      "type": "function"
    },
    {
      "inputs": [
        {
          "internalType": "address",
          "name": "to",
          "type": "address"
        },
        {
          "internalType": "uint256",
          "name": "id",
          "type": "uint256"
        },
        {
          "internalType": "uint256",
          "name": "amount",
          "type": "uint256"
        }
      ],
      "name": "mint",
      "outputs": [],
      "stateMutability": "nonpayable",
      "type": "function"
    },
    {
      "inputs": [
        {
          "internalType": "address",
          "name": "from",
          "type": "address"
        },
        {
          "internalType": "address",
          "name": "to",
          "type": "address"
        },
        {
          "internalType": "uint256[]",
          "name": "ids",
          "type": "uint256[]"
        },
        {
          "internalType": "uint256[]",
          "name": "amounts",
          "type": "uint256[]"
        },
        {
          "internalType": "bytes",
          "name": "data",
          "type": "bytes"
        }
      ],
      "name": "safeBatchTransferFrom",
      "outputs": [],
      "stateMutability": "nonpayable",
      "type": "function"
    },
    {
      "inputs": [
        {
          "internalType": "address",
          "name": "from",
          "type": "address"
        },
        {
          "internalType": "address",
          "name": "to",
          "type": "address"
        },
        {
          "internalType": "uint256",
          "name": "id",
          "type": "uint256"
        },
        {
          "internalType": "uint256",
          "name": "amount",
          "type": "uint256"
        },
        {
          "internalType": "bytes",
          "name": "data",
          "type": "bytes"
        }
      ],
      "name": "safeTransferFrom",
      "outputs": [],
      "stateMutability": "nonpayable",
      "type": "function"
    },
    {
      "inputs": [
        {
          "internalType": "address",
          "name": "operator",
          "type": "address"
        },
        {
          "internalType": "bool",
          "name": "approved",
          "type": "bool"
        }
      ],
      "name": "setApprovalForAll",
      "outputs": [],
      "stateMutability": "nonpayable",
      "type": "function"
    },
    {
      "inputs": [
        {
          "internalType": "bytes4",
          "name": "interfaceId",
          "type": "bytes4"
        }
      ],
      "name": "supportsInterface",
      "outputs": [
        {
          "internalType": "bool",
          "name": "",
          "type": "bool"
        }
      ],
      "stateMutability": "view",
      "type": "function"
    },
    {
      "inputs": [
        {
          "internalType": "address",
          "name": "from",
          "type": "address"
        },
        {
          "internalType": "address",
          "name": "to",
          "type": "address"
        },
        {
          "internalType": "uint256",
          "name": "id",
          "type": "uint256"
        },
        {
          "internalType": "uint256",
          "name": "amount",
          "type": "uint256"
        }
      ],
      "name": "transfer",
      "outputs": [],
      "stateMutability": "nonpayable",
      "type": "function"
    },
    {
      "inputs": [
        {
          "internalType": "uint256",
          "name": "",
          "type": "uint256"
        }
      ],
      "name": "uri",
      "outputs": [
        {
          "internalType": "string",
          "name": "",
          "type": "string"
        }
      ],
      "stateMutability": "view",
      "type": "function"
    }
  ],
  "transactionHash": "0xd7605cc6483e3f08b261923647421eb131845cf971aa91869a115819a6f1f617",
  "args": [],
  "numDeployments": 1,
  "solcInputHash": "46d766fba24daae5e22a65ea8b56a112",
  "bytecode": "0x60806040523480156200001157600080fd5b5060405180608001604052806050815260200162002e43605091396200003d816200008560201b60201c565b5033600360006101000a81548173ffffffffffffffffffffffffffffffffffffffff021916908373ffffffffffffffffffffffffffffffffffffffff160217905550620001b6565b80600290805190602001906200009d929190620000a1565b5050565b828054620000af9062000180565b90600052602060002090601f016020900481019282620000d357600085556200011f565b82601f10620000ee57805160ff19168380011785556200011f565b828001600101855582156200011f579182015b828111156200011e57825182559160200191906001019062000101565b5b5090506200012e919062000132565b5090565b5b808211156200014d57600081600090555060010162000133565b5090565b7f4e487b7100000000000000000000000000000000000000000000000000000000600052602260045260246000fd5b600060028204905060018216806200019957607f821691505b60208210811415620001b057620001af62000151565b5b50919050565b612c7d80620001c66000396000f3fe608060405234801561001057600080fd5b50600436106100a85760003560e01c80632eb2c2d6116100715780632eb2c2d6146101755780634e1273f414610191578063a22cb465146101c1578063e985e9c5146101dd578063f242432a1461020d578063f5298aca14610229576100a8565b8062fdd58e146100ad57806301ffc9a7146100dd5780630411b2521461010d5780630e89341c14610129578063156e29f614610159575b600080fd5b6100c760048036038101906100c29190611893565b610245565b6040516100d491906118e2565b60405180910390f35b6100f760048036038101906100f29190611955565b61030e565b604051610104919061199d565b60405180910390f35b610127600480360381019061012291906119b8565b6103f0565b005b610143600480360381019061013e9190611a1f565b610412565b6040516101509190611ae5565b60405180910390f35b610173600480360381019061016e9190611b07565b6104a6565b005b61018f600480360381019061018a9190611d57565b6104c6565b005b6101ab60048036038101906101a69190611ee9565b610567565b6040516101b8919061201f565b60405180910390f35b6101db60048036038101906101d6919061206d565b610680565b005b6101f760048036038101906101f291906120ad565b610696565b604051610204919061199d565b60405180910390f35b610227600480360381019061022291906120ed565b61072a565b005b610243600480360381019061023e9190611b07565b6107cb565b005b60008073ffffffffffffffffffffffffffffffffffffffff168373ffffffffffffffffffffffffffffffffffffffff1614156102b6576040517f08c379a00000000000000000000000000000000000000000000000000000000081526004016102ad906121f6565b60405180910390fd5b60008083815260200190815260200160002060008473ffffffffffffffffffffffffffffffffffffffff1673ffffffffffffffffffffffffffffffffffffffff16815260200190815260200160002054905092915050565b60007fd9b67a26000000000000000000000000000000000000000000000000000000007bffffffffffffffffffffffffffffffffffffffffffffffffffffffff1916827bffffffffffffffffffffffffffffffffffffffffffffffffffffffff191614806103d957507f0e89341c000000000000000000000000000000000000000000000000000000007bffffffffffffffffffffffffffffffffffffffffffffffffffffffff1916827bffffffffffffffffffffffffffffffffffffffffffffffffffffffff1916145b806103e957506103e8826107db565b5b9050919050565b61040c848484846040518060200160405280600081525061072a565b50505050565b60606002805461042190612245565b80601f016020809104026020016040519081016040528092919081815260200182805461044d90612245565b801561049a5780601f1061046f5761010080835404028352916020019161049a565b820191906000526020600020905b81548152906001019060200180831161047d57829003601f168201915b50505050509050919050565b6104c183838360405180602001604052806000815250610845565b505050565b6104ce6109f6565b73ffffffffffffffffffffffffffffffffffffffff168573ffffffffffffffffffffffffffffffffffffffff16148061051457506105138561050e6109f6565b610696565b5b610553576040517f08c379a000000000000000000000000000000000000000000000000000000000815260040161054a906122e9565b60405180910390fd5b61056085858585856109fe565b5050505050565b606081518351146105ad576040517f08c379a00000000000000000000000000000000000000000000000000000000081526004016105a49061237b565b60405180910390fd5b6000835167ffffffffffffffff8111156105ca576105c9611b5f565b5b6040519080825280602002602001820160405280156105f85781602001602082028036833780820191505090505b50905060005b84518110156106755761064585828151811061061d5761061c61239b565b5b60200260200101518583815181106106385761063761239b565b5b6020026020010151610245565b8282815181106106585761065761239b565b5b6020026020010181815250508061066e906123f9565b90506105fe565b508091505092915050565b61069261068b6109f6565b8383610d20565b5050565b6000600160008473ffffffffffffffffffffffffffffffffffffffff1673ffffffffffffffffffffffffffffffffffffffff16815260200190815260200160002060008373ffffffffffffffffffffffffffffffffffffffff1673ffffffffffffffffffffffffffffffffffffffff16815260200190815260200160002060009054906101000a900460ff16905092915050565b6107326109f6565b73ffffffffffffffffffffffffffffffffffffffff168573ffffffffffffffffffffffffffffffffffffffff1614806107785750610777856107726109f6565b610696565b5b6107b7576040517f08c379a00000000000000000000000000000000000000000000000000000000081526004016107ae906122e9565b60405180910390fd5b6107c48585858585610e8d565b5050505050565b6107d6838383611129565b505050565b60007f01ffc9a7000000000000000000000000000000000000000000000000000000007bffffffffffffffffffffffffffffffffffffffffffffffffffffffff1916827bffffffffffffffffffffffffffffffffffffffffffffffffffffffff1916149050919050565b600073ffffffffffffffffffffffffffffffffffffffff168473ffffffffffffffffffffffffffffffffffffffff1614156108b5576040517f08c379a00000000000000000000000000000000000000000000000000000000081526004016108ac906124b4565b60405180910390fd5b60006108bf6109f6565b905060006108cc85611370565b905060006108d985611370565b90506108ea836000898585896113ea565b8460008088815260200190815260200160002060008973ffffffffffffffffffffffffffffffffffffffff1673ffffffffffffffffffffffffffffffffffffffff168152602001908152602001600020600082825461094991906124d4565b925050819055508673ffffffffffffffffffffffffffffffffffffffff16600073ffffffffffffffffffffffffffffffffffffffff168473ffffffffffffffffffffffffffffffffffffffff167fc3d58168c5ae7397731d063d5bbf3d657854427343f4c083240f7aacaa2d0f6289896040516109c792919061252a565b60405180910390a46109de836000898585896113f2565b6109ed836000898989896113fa565b50505050505050565b600033905090565b8151835114610a42576040517f08c379a0000000000000000000000000000000000000000000000000000000008152600401610a39906125c5565b60405180910390fd5b600073ffffffffffffffffffffffffffffffffffffffff168473ffffffffffffffffffffffffffffffffffffffff161415610ab2576040517f08c379a0000000000000000000000000000000000000000000000000000000008152600401610aa990612657565b60405180910390fd5b6000610abc6109f6565b9050610acc8187878787876113ea565b60005b8451811015610c7d576000858281518110610aed57610aec61239b565b5b602002602001015190506000858381518110610b0c57610b0b61239b565b5b60200260200101519050600080600084815260200190815260200160002060008b73ffffffffffffffffffffffffffffffffffffffff1673ffffffffffffffffffffffffffffffffffffffff16815260200190815260200160002054905081811015610bad576040517f08c379a0000000000000000000000000000000000000000000000000000000008152600401610ba4906126e9565b60405180910390fd5b81810360008085815260200190815260200160002060008c73ffffffffffffffffffffffffffffffffffffffff1673ffffffffffffffffffffffffffffffffffffffff168152602001908152602001600020819055508160008085815260200190815260200160002060008b73ffffffffffffffffffffffffffffffffffffffff1673ffffffffffffffffffffffffffffffffffffffff1681526020019081526020016000206000828254610c6291906124d4565b9250508190555050505080610c76906123f9565b9050610acf565b508473ffffffffffffffffffffffffffffffffffffffff168673ffffffffffffffffffffffffffffffffffffffff168273ffffffffffffffffffffffffffffffffffffffff167f4a39dc06d4c0dbc64b70af90fd698a233a518aa5d07e595d983b8c0526c8f7fb8787604051610cf4929190612709565b60405180910390a4610d0a8187878787876113f2565b610d188187878787876115e1565b505050505050565b8173ffffffffffffffffffffffffffffffffffffffff168373ffffffffffffffffffffffffffffffffffffffff161415610d8f576040517f08c379a0000000000000000000000000000000000000000000000000000000008152600401610d86906127b2565b60405180910390fd5b80600160008573ffffffffffffffffffffffffffffffffffffffff1673ffffffffffffffffffffffffffffffffffffffff16815260200190815260200160002060008473ffffffffffffffffffffffffffffffffffffffff1673ffffffffffffffffffffffffffffffffffffffff16815260200190815260200160002060006101000a81548160ff0219169083151502179055508173ffffffffffffffffffffffffffffffffffffffff168373ffffffffffffffffffffffffffffffffffffffff167f17307eab39ab6107e8899845ad3d59bd9653f200f220920489ca2b5937696c3183604051610e80919061199d565b60405180910390a3505050565b600073ffffffffffffffffffffffffffffffffffffffff168473ffffffffffffffffffffffffffffffffffffffff161415610efd576040517f08c379a0000000000000000000000000000000000000000000000000000000008152600401610ef490612657565b60405180910390fd5b6000610f076109f6565b90506000610f1485611370565b90506000610f2185611370565b9050610f318389898585896113ea565b600080600088815260200190815260200160002060008a73ffffffffffffffffffffffffffffffffffffffff1673ffffffffffffffffffffffffffffffffffffffff16815260200190815260200160002054905085811015610fc8576040517f08c379a0000000000000000000000000000000000000000000000000000000008152600401610fbf906126e9565b60405180910390fd5b85810360008089815260200190815260200160002060008b73ffffffffffffffffffffffffffffffffffffffff1673ffffffffffffffffffffffffffffffffffffffff168152602001908152602001600020819055508560008089815260200190815260200160002060008a73ffffffffffffffffffffffffffffffffffffffff1673ffffffffffffffffffffffffffffffffffffffff168152602001908152602001600020600082825461107d91906124d4565b925050819055508773ffffffffffffffffffffffffffffffffffffffff168973ffffffffffffffffffffffffffffffffffffffff168573ffffffffffffffffffffffffffffffffffffffff167fc3d58168c5ae7397731d063d5bbf3d657854427343f4c083240f7aacaa2d0f628a8a6040516110fa92919061252a565b60405180910390a4611110848a8a86868a6113f2565b61111e848a8a8a8a8a6113fa565b505050505050505050565b600073ffffffffffffffffffffffffffffffffffffffff168373ffffffffffffffffffffffffffffffffffffffff161415611199576040517f08c379a000000000000000000000000000000000000000000000000000000000815260040161119090612844565b60405180910390fd5b60006111a36109f6565b905060006111b084611370565b905060006111bd84611370565b90506111dd838760008585604051806020016040528060008152506113ea565b600080600087815260200190815260200160002060008873ffffffffffffffffffffffffffffffffffffffff1673ffffffffffffffffffffffffffffffffffffffff16815260200190815260200160002054905084811015611274576040517f08c379a000000000000000000000000000000000000000000000000000000000815260040161126b906128d6565b60405180910390fd5b84810360008088815260200190815260200160002060008973ffffffffffffffffffffffffffffffffffffffff1673ffffffffffffffffffffffffffffffffffffffff16815260200190815260200160002081905550600073ffffffffffffffffffffffffffffffffffffffff168773ffffffffffffffffffffffffffffffffffffffff168573ffffffffffffffffffffffffffffffffffffffff167fc3d58168c5ae7397731d063d5bbf3d657854427343f4c083240f7aacaa2d0f62898960405161134192919061252a565b60405180910390a4611367848860008686604051806020016040528060008152506113f2565b50505050505050565b60606000600167ffffffffffffffff81111561138f5761138e611b5f565b5b6040519080825280602002602001820160405280156113bd5781602001602082028036833780820191505090505b50905082816000815181106113d5576113d461239b565b5b60200260200101818152505080915050919050565b505050505050565b505050505050565b6114198473ffffffffffffffffffffffffffffffffffffffff166117c8565b156115d9578373ffffffffffffffffffffffffffffffffffffffff1663f23a6e6187878686866040518663ffffffff1660e01b815260040161145f95949392919061295a565b602060405180830381600087803b15801561147957600080fd5b505af19250505080156114aa57506040513d601f19601f820116820180604052508101906114a791906129c9565b60015b611550576114b6612a03565b806308c379a0141561151357506114cb612a25565b806114d65750611515565b806040517f08c379a000000000000000000000000000000000000000000000000000000000815260040161150a9190611ae5565b60405180910390fd5b505b6040517f08c379a000000000000000000000000000000000000000000000000000000000815260040161154790612b2d565b60405180910390fd5b63f23a6e6160e01b7bffffffffffffffffffffffffffffffffffffffffffffffffffffffff1916817bffffffffffffffffffffffffffffffffffffffffffffffffffffffff1916146115d7576040517f08c379a00000000000000000000000000000000000000000000000000000000081526004016115ce90612bbf565b60405180910390fd5b505b505050505050565b6116008473ffffffffffffffffffffffffffffffffffffffff166117c8565b156117c0578373ffffffffffffffffffffffffffffffffffffffff1663bc197c8187878686866040518663ffffffff1660e01b8152600401611646959493929190612bdf565b602060405180830381600087803b15801561166057600080fd5b505af192505050801561169157506040513d601f19601f8201168201806040525081019061168e91906129c9565b60015b6117375761169d612a03565b806308c379a014156116fa57506116b2612a25565b806116bd57506116fc565b806040517f08c379a00000000000000000000000000000000000000000000000000000000081526004016116f19190611ae5565b60405180910390fd5b505b6040517f08c379a000000000000000000000000000000000000000000000000000000000815260040161172e90612b2d565b60405180910390fd5b63bc197c8160e01b7bffffffffffffffffffffffffffffffffffffffffffffffffffffffff1916817bffffffffffffffffffffffffffffffffffffffffffffffffffffffff1916146117be576040517f08c379a00000000000000000000000000000000000000000000000000000000081526004016117b590612bbf565b60405180910390fd5b505b505050505050565b6000808273ffffffffffffffffffffffffffffffffffffffff163b119050919050565b6000604051905090565b600080fd5b600080fd5b600073ffffffffffffffffffffffffffffffffffffffff82169050919050565b600061182a826117ff565b9050919050565b61183a8161181f565b811461184557600080fd5b50565b60008135905061185781611831565b92915050565b6000819050919050565b6118708161185d565b811461187b57600080fd5b50565b60008135905061188d81611867565b92915050565b600080604083850312156118aa576118a96117f5565b5b60006118b885828601611848565b92505060206118c98582860161187e565b9150509250929050565b6118dc8161185d565b82525050565b60006020820190506118f760008301846118d3565b92915050565b60007fffffffff0000000000000000000000000000000000000000000000000000000082169050919050565b611932816118fd565b811461193d57600080fd5b50565b60008135905061194f81611929565b92915050565b60006020828403121561196b5761196a6117f5565b5b600061197984828501611940565b91505092915050565b60008115159050919050565b61199781611982565b82525050565b60006020820190506119b2600083018461198e565b92915050565b600080600080608085870312156119d2576119d16117f5565b5b60006119e087828801611848565b94505060206119f187828801611848565b9350506040611a028782880161187e565b9250506060611a138782880161187e565b91505092959194509250565b600060208284031215611a3557611a346117f5565b5b6000611a438482850161187e565b91505092915050565b600081519050919050565b600082825260208201905092915050565b60005b83811015611a86578082015181840152602081019050611a6b565b83811115611a95576000848401525b50505050565b6000601f19601f8301169050919050565b6000611ab782611a4c565b611ac18185611a57565b9350611ad1818560208601611a68565b611ada81611a9b565b840191505092915050565b60006020820190508181036000830152611aff8184611aac565b905092915050565b600080600060608486031215611b2057611b1f6117f5565b5b6000611b2e86828701611848565b9350506020611b3f8682870161187e565b9250506040611b508682870161187e565b9150509250925092565b600080fd5b7f4e487b7100000000000000000000000000000000000000000000000000000000600052604160045260246000fd5b611b9782611a9b565b810181811067ffffffffffffffff82111715611bb657611bb5611b5f565b5b80604052505050565b6000611bc96117eb565b9050611bd58282611b8e565b919050565b600067ffffffffffffffff821115611bf557611bf4611b5f565b5b602082029050602081019050919050565b600080fd5b6000611c1e611c1984611bda565b611bbf565b90508083825260208201905060208402830185811115611c4157611c40611c06565b5b835b81811015611c6a5780611c56888261187e565b845260208401935050602081019050611c43565b5050509392505050565b600082601f830112611c8957611c88611b5a565b5b8135611c99848260208601611c0b565b91505092915050565b600080fd5b600067ffffffffffffffff821115611cc257611cc1611b5f565b5b611ccb82611a9b565b9050602081019050919050565b82818337600083830152505050565b6000611cfa611cf584611ca7565b611bbf565b905082815260208101848484011115611d1657611d15611ca2565b5b611d21848285611cd8565b509392505050565b600082601f830112611d3e57611d3d611b5a565b5b8135611d4e848260208601611ce7565b91505092915050565b600080600080600060a08688031215611d7357611d726117f5565b5b6000611d8188828901611848565b9550506020611d9288828901611848565b945050604086013567ffffffffffffffff811115611db357611db26117fa565b5b611dbf88828901611c74565b935050606086013567ffffffffffffffff811115611de057611ddf6117fa565b5b611dec88828901611c74565b925050608086013567ffffffffffffffff811115611e0d57611e0c6117fa565b5b611e1988828901611d29565b9150509295509295909350565b600067ffffffffffffffff821115611e4157611e40611b5f565b5b602082029050602081019050919050565b6000611e65611e6084611e26565b611bbf565b90508083825260208201905060208402830185811115611e8857611e87611c06565b5b835b81811015611eb15780611e9d8882611848565b845260208401935050602081019050611e8a565b5050509392505050565b600082601f830112611ed057611ecf611b5a565b5b8135611ee0848260208601611e52565b91505092915050565b60008060408385031215611f0057611eff6117f5565b5b600083013567ffffffffffffffff811115611f1e57611f1d6117fa565b5b611f2a85828601611ebb565b925050602083013567ffffffffffffffff811115611f4b57611f4a6117fa565b5b611f5785828601611c74565b9150509250929050565b600081519050919050565b600082825260208201905092915050565b6000819050602082019050919050565b611f968161185d565b82525050565b6000611fa88383611f8d565b60208301905092915050565b6000602082019050919050565b6000611fcc82611f61565b611fd68185611f6c565b9350611fe183611f7d565b8060005b83811015612012578151611ff98882611f9c565b975061200483611fb4565b925050600181019050611fe5565b5085935050505092915050565b600060208201905081810360008301526120398184611fc1565b905092915050565b61204a81611982565b811461205557600080fd5b50565b60008135905061206781612041565b92915050565b60008060408385031215612084576120836117f5565b5b600061209285828601611848565b92505060206120a385828601612058565b9150509250929050565b600080604083850312156120c4576120c36117f5565b5b60006120d285828601611848565b92505060206120e385828601611848565b9150509250929050565b600080600080600060a08688031215612109576121086117f5565b5b600061211788828901611848565b955050602061212888828901611848565b94505060406121398882890161187e565b935050606061214a8882890161187e565b925050608086013567ffffffffffffffff81111561216b5761216a6117fa565b5b61217788828901611d29565b9150509295509295909350565b7f455243313135353a2061646472657373207a65726f206973206e6f742061207660008201527f616c6964206f776e657200000000000000000000000000000000000000000000602082015250565b60006121e0602a83611a57565b91506121eb82612184565b604082019050919050565b6000602082019050818103600083015261220f816121d3565b9050919050565b7f4e487b7100000000000000000000000000000000000000000000000000000000600052602260045260246000fd5b6000600282049050600182168061225d57607f821691505b6020821081141561227157612270612216565b5b50919050565b7f455243313135353a2063616c6c6572206973206e6f7420746f6b656e206f776e60008201527f6572206e6f7220617070726f7665640000000000000000000000000000000000602082015250565b60006122d3602f83611a57565b91506122de82612277565b604082019050919050565b60006020820190508181036000830152612302816122c6565b9050919050565b7f455243313135353a206163636f756e747320616e6420696473206c656e67746860008201527f206d69736d617463680000000000000000000000000000000000000000000000602082015250565b6000612365602983611a57565b915061237082612309565b604082019050919050565b6000602082019050818103600083015261239481612358565b9050919050565b7f4e487b7100000000000000000000000000000000000000000000000000000000600052603260045260246000fd5b7f4e487b7100000000000000000000000000000000000000000000000000000000600052601160045260246000fd5b60006124048261185d565b91507fffffffffffffffffffffffffffffffffffffffffffffffffffffffffffffffff821415612437576124366123ca565b5b600182019050919050565b7f455243313135353a206d696e7420746f20746865207a65726f2061646472657360008201527f7300000000000000000000000000000000000000000000000000000000000000602082015250565b600061249e602183611a57565b91506124a982612442565b604082019050919050565b600060208201905081810360008301526124cd81612491565b9050919050565b60006124df8261185d565b91506124ea8361185d565b9250827fffffffffffffffffffffffffffffffffffffffffffffffffffffffffffffffff0382111561251f5761251e6123ca565b5b828201905092915050565b600060408201905061253f60008301856118d3565b61254c60208301846118d3565b9392505050565b7f455243313135353a2069647320616e6420616d6f756e7473206c656e6774682060008201527f6d69736d61746368000000000000000000000000000000000000000000000000602082015250565b60006125af602883611a57565b91506125ba82612553565b604082019050919050565b600060208201905081810360008301526125de816125a2565b9050919050565b7f455243313135353a207472616e7366657220746f20746865207a65726f20616460008201527f6472657373000000000000000000000000000000000000000000000000000000602082015250565b6000612641602583611a57565b915061264c826125e5565b604082019050919050565b6000602082019050818103600083015261267081612634565b9050919050565b7f455243313135353a20696e73756666696369656e742062616c616e636520666f60008201527f72207472616e7366657200000000000000000000000000000000000000000000602082015250565b60006126d3602a83611a57565b91506126de82612677565b604082019050919050565b60006020820190508181036000830152612702816126c6565b9050919050565b600060408201905081810360008301526127238185611fc1565b905081810360208301526127378184611fc1565b90509392505050565b7f455243313135353a2073657474696e6720617070726f76616c2073746174757360008201527f20666f722073656c660000000000000000000000000000000000000000000000602082015250565b600061279c602983611a57565b91506127a782612740565b604082019050919050565b600060208201905081810360008301526127cb8161278f565b9050919050565b7f455243313135353a206275726e2066726f6d20746865207a65726f206164647260008201527f6573730000000000000000000000000000000000000000000000000000000000602082015250565b600061282e602383611a57565b9150612839826127d2565b604082019050919050565b6000602082019050818103600083015261285d81612821565b9050919050565b7f455243313135353a206275726e20616d6f756e7420657863656564732062616c60008201527f616e636500000000000000000000000000000000000000000000000000000000602082015250565b60006128c0602483611a57565b91506128cb82612864565b604082019050919050565b600060208201905081810360008301526128ef816128b3565b9050919050565b6128ff8161181f565b82525050565b600081519050919050565b600082825260208201905092915050565b600061292c82612905565b6129368185612910565b9350612946818560208601611a68565b61294f81611a9b565b840191505092915050565b600060a08201905061296f60008301886128f6565b61297c60208301876128f6565b61298960408301866118d3565b61299660608301856118d3565b81810360808301526129a88184612921565b90509695505050505050565b6000815190506129c381611929565b92915050565b6000602082840312156129df576129de6117f5565b5b60006129ed848285016129b4565b91505092915050565b60008160e01c9050919050565b600060033d1115612a225760046000803e612a1f6000516129f6565b90505b90565b600060443d1015612a3557612ab8565b612a3d6117eb565b60043d036004823e80513d602482011167ffffffffffffffff82111715612a65575050612ab8565b808201805167ffffffffffffffff811115612a835750505050612ab8565b80602083010160043d038501811115612aa0575050505050612ab8565b612aaf82602001850186611b8e565b82955050505050505b90565b7f455243313135353a207472616e7366657220746f206e6f6e204552433131353560008201527f526563656976657220696d706c656d656e746572000000000000000000000000602082015250565b6000612b17603483611a57565b9150612b2282612abb565b604082019050919050565b60006020820190508181036000830152612b4681612b0a565b9050919050565b7f455243313135353a204552433131353552656365697665722072656a6563746560008201527f6420746f6b656e73000000000000000000000000000000000000000000000000602082015250565b6000612ba9602883611a57565b9150612bb482612b4d565b604082019050919050565b60006020820190508181036000830152612bd881612b9c565b9050919050565b600060a082019050612bf460008301886128f6565b612c0160208301876128f6565b8181036040830152612c138186611fc1565b90508181036060830152612c278185611fc1565b90508181036080830152612c3b8184612921565b9050969550505050505056fea2646970667358221220bd8eafa93c005c4f7f6b9de6ab72b87433d4213bc69543d162cf5f36987d899664736f6c6343000809003368747470733a2f2f776f78706476667468746d7a6e687776796d656f2e73757061626173652e636f2f73746f726167652f76312f6f626a6563742f7075626c69632f6e6674732f7b69647d2e6a736f6e",
  "devdoc": {
    "kind": "dev",
    "methods": {
      "balanceOf(address,uint256)": {
        "details": "See {IERC1155-balanceOf}. Requirements: - `account` cannot be the zero address."
      },
      "balanceOfBatch(address[],uint256[])": {
        "details": "See {IERC1155-balanceOfBatch}. Requirements: - `accounts` and `ids` must have the same length."
      },
      "isApprovedForAll(address,address)": {
        "details": "See {IERC1155-isApprovedForAll}."
      },
      "safeBatchTransferFrom(address,address,uint256[],uint256[],bytes)": {
        "details": "See {IERC1155-safeBatchTransferFrom}."
      },
      "safeTransferFrom(address,address,uint256,uint256,bytes)": {
        "details": "See {IERC1155-safeTransferFrom}."
      },
      "setApprovalForAll(address,bool)": {
        "details": "See {IERC1155-setApprovalForAll}."
      },
      "supportsInterface(bytes4)": {
        "details": "See {IERC165-supportsInterface}."
      },
      "uri(uint256)": {
        "details": "See {IERC1155MetadataURI-uri}. This implementation returns the same URI for *all* token types. It relies on the token type ID substitution mechanism https://eips.ethereum.org/EIPS/eip-1155#metadata[defined in the EIP]. Clients calling this function must replace the `\\{id\\}` substring with the actual token type ID."
      }
    },
    "version": 1
  },
  "userdoc": {
    "kind": "user",
    "methods": {},
    "version": 1
  },
  "storageLayout": {
    "storage": [
      {
        "astId": 25,
        "contract": "contracts/Deewarr.sol:Deewarr",
        "label": "_balances",
        "offset": 0,
        "slot": "0",
        "type": "t_mapping(t_uint256,t_mapping(t_address,t_uint256))"
      },
      {
        "astId": 31,
        "contract": "contracts/Deewarr.sol:Deewarr",
        "label": "_operatorApprovals",
        "offset": 0,
        "slot": "1",
        "type": "t_mapping(t_address,t_mapping(t_address,t_bool))"
      },
      {
        "astId": 33,
        "contract": "contracts/Deewarr.sol:Deewarr",
        "label": "_uri",
        "offset": 0,
        "slot": "2",
        "type": "t_string_storage"
      },
      {
        "astId": 1761,
        "contract": "contracts/Deewarr.sol:Deewarr",
        "label": "owner",
        "offset": 0,
        "slot": "3",
        "type": "t_address"
      }
    ],
    "types": {
      "t_address": {
        "encoding": "inplace",
        "label": "address",
        "numberOfBytes": "20"
      },
      "t_bool": {
        "encoding": "inplace",
        "label": "bool",
        "numberOfBytes": "1"
      },
      "t_mapping(t_address,t_bool)": {
        "encoding": "mapping",
        "key": "t_address",
        "label": "mapping(address => bool)",
        "numberOfBytes": "32",
        "value": "t_bool"
      },
      "t_mapping(t_address,t_mapping(t_address,t_bool))": {
        "encoding": "mapping",
        "key": "t_address",
        "label": "mapping(address => mapping(address => bool))",
        "numberOfBytes": "32",
        "value": "t_mapping(t_address,t_bool)"
      },
      "t_mapping(t_address,t_uint256)": {
        "encoding": "mapping",
        "key": "t_address",
        "label": "mapping(address => uint256)",
        "numberOfBytes": "32",
        "value": "t_uint256"
      },
      "t_mapping(t_uint256,t_mapping(t_address,t_uint256))": {
        "encoding": "mapping",
        "key": "t_uint256",
        "label": "mapping(uint256 => mapping(address => uint256))",
        "numberOfBytes": "32",
        "value": "t_mapping(t_address,t_uint256)"
      },
      "t_string_storage": {
        "encoding": "bytes",
        "label": "string",
        "numberOfBytes": "32"
      },
      "t_uint256": {
        "encoding": "inplace",
        "label": "uint256",
        "numberOfBytes": "32"
      }
    }
  }
}